:020000040800F2
:100000003815002001010008B7280008971F0008D4
:10001000B5280008EF050008CD2F000800000000FB
:10002000000000000000000000000000CD2B0008D0
:100030005108000800000000392B0008752C00084A
:100040001B0100081B0100081B0100081B01000820
:100050001B0100081B0100081B0100081B01000810
:100060001B0100081B0100081B010008F105000826
:100070001B0100081B0100081B0100081B010008F0
:100080001B0100081B0100081B0100081B010008E0
:100090001B0100081B0100081B0100081B010008D0
:1000A0001B0100081B0100081B0100081B010008C0
:1000B0001B0100081B0100081B0100081B010008B0
:1000C0001B0100081B0100081B0100081B010008A0
:1000D0001B010008752F00081B0100081B01000808
:1000E0001B0100081B0100081B010008DFF80CD0F1
:1000F00000F014FA00480047A94100083815002014
:100100000648804706480047FEE7FEE7FEE7FEE7B1
:10011000FEE7FEE7FEE7FEE7FEE7FEE7F12C00085C
:10012000ED0000082DE9F0410024061B254671F181
:10013000000605DA01240027D0EB070067EB010178
:10014000161E73F1000605DA0027D2EB070201251F
:1001500067EB030300F06BF986460E4617469C4694
:10016000AC4204D00025D0EB050E65EB010624B1AE
:100170000020D2EB000760EB030C704631463A4694
:100180006346BDE8F081202A04DB203A21FA02F020
:100190000021704721FA02F3D040C2F120029140C1
:1001A000084319467047D2B201E000F8012B491EFE
:1001B000FBD270470022F6E710B513460A46044604
:1001C0001946FFF7F0FF204610BD30B50446002069
:1001D000034600E05B1C934203D2E05CCD5C401B15
:1001E000F8D030BDF0B480EA0102D40F4200B2EB87
:1001F000410F02D20246084611464A0042D0C30DC2
:10020000DDB2C1F3C752AD1A202D35DAC1F31601A4
:1002100041F4000204B15242C5F1200602FA06F18F
:100220002A411044B3EBD05F23D0C4B1012DA0EB21
:10023000C35009DCF0BC4FF0004202EAC352DBB20B
:1002400000F5000000F03CB9400000F1807000EBC8
:10025000C350A0F1807040EAD170490009E049081C
:1002600041EAC071A0EBC35000F50000400800EB6C
:10027000C350F0BC00F01BB96142012202EB410106
:10028000001BF6E7F0BC704781F00041AAE780F060
:100290000040A7E780EA010210B502F000434000E9
:1002A00022D04A001FD0010E01EB1261C0F35600AC
:1002B000C2F3560240F4000042F40002A0FB022008
:1002C00000047F39140400D0401C50EA124001D4CD
:1002D0004000491EC2B20C0604EBD010401C40087E
:1002E000802A02D003E0002010BD20F00100002988
:1002F00000DA0020184310BD30B480EA010202F099
:10030000004530F0004221F0004013D090B1C30D01
:10031000D40DC2F31601C0F31600E41A41F4000133
:1003200040F400027D34914201D3641C00E0490096
:10033000002C02DA30BC002070474FF4000000238C
:10034000914201D3891A034340084FEA4101F7D192
:1003500051B1914202D14FF0004105E002D24FF07D
:10036000010101E06FF0010103EBC450284430BCEF
:1003700000F09DB8420005D0C0F3C75252429142EE
:1003800001DC0020704700EBC1507047C10F80EACC
:10039000E0700844CA079623002100F091B8962324
:1003A0000022114600F08CB800F0004220F000401E
:1003B000C10DC0F3160040F400007F2901DA0020CF
:1003C0007047962903DCC1F19601C84001E09639D7
:1003D0008840002AF4D04042704720F00040C10D10
:1003E000C0F3160040F400007F2901DA00207047B6
:1003F000962903DCC1F19601C840704796398840C0
:10040000704730B50B46014600202022012409E048
:1004100021FA02F59D4205D303FA02F5491B04FABD
:1004200002F52844151EA2F10102F1DC30BD2DE9D0
:10043000F05F0546002092469B4688460646814668
:1004400040241BE02846414647462246FFF79BFED4
:1004500053465A46C01A914110D3114618462246B7
:1004600000F016F82D1A67EB01084F4622460120CE
:10047000002100F00DF817EB00094E41201EA4F1F9
:100480000104DFDC484631462A464346BDE8F09F7A
:10049000202A04DB203A00FA02F100207047914044
:1004A000C2F1200320FA03F319439040704700295A
:1004B000A8BF7047401C490008BF20F001007047EA
:1004C00010B4B0FA80FC00FA0CF050EA010404BF4A
:1004D00010BC704749B1CCF1200421FA04F411FAA0
:1004E0000CF118BF012121430843A3EB0C01CB1DE4
:1004F0004FEA00614FEA102042BF002010BC704755
:1005000000EBC35010440029A4BF10BC7047401C2E
:10051000490008BF20F0010010BC7047064C074D91
:1005200006E0E06840F0010394E8070098471034C3
:10053000AC42F6D3FFF7DEFD5C5B00087C5B000895
:1005400070B58C1810F8015B15F0070301D110F895
:10055000013B2A1106D110F8012B03E010F8016BC2
:1005600001F8016B5B1EF9D12B0705D40023521E45
:100570000DD401F8013BFAE710F8013BCB1A921CAD
:1005800003E013F8015B01F8015B521EF9D5A142AB
:10059000D8D3002070BD000070B5044600688168A3
:1005A000C943C90717D1816821F00101816000F0BA
:1005B00099FD05460AE000BF00F094FD401B0228AB
:1005C00004D920688068C043C00706D020688068CE
:1005D000C043C007F0D0002070BDA06A40F01000FA
:1005E000A062E06A40F00100E062012070BDFEE719
:1005F000014800F093BB0000440C00200A4800B5FD
:10060000816985B041F0080181618069694600F027
:1006100008000490022000900020019002900348FE
:1006200000F066FC05B000BD00100240000C014067
:100630000E4810B5816986B041F00801816180697A
:100640000B4C00F00800049000220221204600F02C
:1006500044FD02210120CDE900100020CDE9020176
:100660006946204600F044FC06B010BD0010024070
:10067000000C014010B500F09DF81F48017801F012
:100680000F02090901EB810102EB410200F10801AF
:100690008A71427802F00F03120902EB820203EB27
:1006A00042024A71827802F00F03120902EB8202C1
:1006B00003EB42020A71C27802F00F03120902EB47
:1006C000820203EB4202CA70027902F00F031209A0
:1006D00002EB820203EB42028A704279CA7180798E
:1006E00000F00F02000900EB800002EB400000F573
:1006F000FA60088010BD0000100000202DE9F047CE
:1007000000252A4F06464FF480682C462A4641466B
:10071000384600F0E2FCDFF898900022802148463D
:1007200000F0DBFC032002F0A9FE0122414638461E
:1007300000F0D3FC032002F0A1FE304600F05CF88C
:10074000FFF75CFF032002F099FE4E46032002F003
:1007500095FE640801228021304600F0BEFC052091
:1007600002F08CFE00228021304600F0B6FC1E20F4
:1007700002F084FE0221384600F0AAFC08B144F0E1
:1007800080046D1CEDB2082DE0D3022002F076FE4D
:1007900000224146384600F0A0FC002202213846E3
:1007A00000F09BFC2046BDE8F0870000000C0140F3
:1007B0000008014010B58120FFF7A0FF0D4C20700C
:1007C0008320FFF79BFF60708520FFF797FFA070E5
:1007D0008720FFF793FFE0708920FFF78FFF2071DC
:1007E0008B20FFF78BFF60718D20FFF787FFA071D3
:1007F00010BD0000100000202DE9F041124E05460A
:10080000002422468021304600F067FCFFF710FFED
:100810000E4F00228021304600F05FFCE80701D037
:10082000012200E000220221384600F056FC01229D
:100830008021304600F051FC641C6D08E4B2082CA5
:10084000E7D3BDE8F081000000080140000C014042
:10085000704772B6FEE700002DE9F0470024494AD0
:100860002346254620462146565C3D2E02D0212EA9
:100870000AD001E04C1CE4B2491CC9B2C829F3D328
:10088000115D2D2903D005E0491ECBB2F8E7641CA9
:10089000E4B20125191B491CC9B23B4EDFF8ECA09C
:1008A000042904D005291ED006293AD064E017197E
:1008B0009046F8783038FFF769FD3146FFF7EAFCDB
:1008C0000646B8783038FFF761FD5146FFF7E2FC85
:1008D000074618F804003038FFF758FD3946FFF78F
:1008E00081FC314646E01719914638793038FFF7D8
:1008F0004DFD3146FFF7CEFC8046F8783038FFF7E3
:1009000045FD5146FFF7C6FC064619F80400797804
:10091000303800EB80006FF02F0202EB40000844FB
:1009200022E01719914678793038FFF72FFD3146CC
:10093000FFF7B0FC804638793038FFF727FD514685
:10094000FFF7A8FC064619F80400B978303800EB28
:10095000C00202EB001001EB800079780C4A01EB39
:10096000810102EB41010844FFF710FD3146FFF71A
:1009700039FC4146FFF736FC002D01D080F00040E5
:10098000BDE8F0874C0B00200AD7233CCDCCCC3DF2
:10099000F0FDFFFFF8B50024009490F824202546D0
:1009A000012A12D0012280F824204A681F23072A36
:1009B0000DD20668776B521E02EB820293409F4372
:1009C0000B6893401F43776319E00220F8BD066867
:1009D0000D2A0AD2376BD21F02EB820293409F434B
:1009E0000B6893401F43376309E0F76A0D3A02EB47
:1009F000820293409F430B6893401F43F7620A684B
:100A0000072306680A2A0AD3F7680A3A02EB420269
:100A100093409F438B6893401F43F76008E037691A
:100A200002EB420293409F438B6893401F43376120
:100A30000A68102A01D0112A20D1124B02689A426A
:100A400017D193681B0219D4936843F40003936091
:100A50000968102912D10C490C4A0968B1FBF2F15E
:100A600001EB8101490000E0491E00910029FBD102
:100A700004E0816A41F020018162012480F8245061
:100A80002046F8BD002401403800002040420F00FD
:100A90002DE9F0414FF0000704003D467ED0A06AEA
:100AA000002628B9E66284F82460204600F07EF82B
:100AB0002046FFF771FDA16AC90600D420B1A06AE3
:100AC00040F01000A06269E0A16A21F4885141F071
:100AD0000201A1626268E169237B0A4347EA43019C
:100AE0000A43A1684FF48077B94209D0012907D0A1
:100AF0005FF0000194F814C0BCF1010F02D00AE0CD
:100B00003946F7E7F3B1A36A43F02003A362E36A2F
:100B100043F00103E3622368D3F804C02CF4694C6A
:100B20004CEA010CC3F804C021688B68DFF870C080
:100B300003EA0C0313438B60A168B9420BD001296F
:100B400009D00CE0DFF85CC0A3690CEB43330B4326
:100B500043F40061DFE7218A0D05A5F580152168C2
:100B6000CB6A23F470032B43CB62216889680E4B58
:100B70001940914208D1E662A16A21F0020141F0D8
:100B80000101A162BDE8F081A06A20F0020040F0FE
:100B90001000A062E06A40F00100E0620120F1E78D
:100BA000FDF7E1FF00E0FFFFFE0E1FFF70B586B00E
:100BB00000250646009501950295039500681A499F
:100BC00088422ED11949886940F40070886188698B
:100BD00000F400700490886940F00800886188691A
:100BE000694600F008000490012000900320019065
:100BF0000F4800F07DF9104C0E48C4E90005802034
:100C0000C4E9025040002061800060612020C4E9F6
:100C10000605204600F02CF908B1FFF71AFE3462F1
:100C2000666206B070BD0000002401400010024062
:100C3000000C014008000240440C002010B590F860
:100C400021100022022905D00421816380F8202090
:100C5000012010BD01680B6823F00E030B600168D2
:100C60000B6823F001030B6090F84030C46B012146
:100C700001FA03F3636080F8211080F82020104609
:100C800010BD000010B590F821100024022903D0F7
:100C90000421816301243DE001680A6822F00E020C
:100CA0000A6001680A6822F001020A601A4A0168B3
:100CB000914201D1012121E0174A1432914201D120
:100CC00010211BE0144A2832914201D1891515E008
:100CD000114A3C32914201D189140FE00E4A503240
:100CE000914202D14FF4803108E00B4A64329142C4
:100CF00002D14FF4801101E04FF08071064A083AAA
:100D00005160012180F82110002180F82010416BF2
:100D100001B18847204610BD080002402DE9F05F70
:100D2000C16B0C6801680B68D0F840C0042202FA5D
:100D30000CF2494DDFF824A1494E4A4FDFF828B1A3
:100D4000DFF828E122422CD05A072AD50A689206F9
:100D500003D40A6822F004020A600168A94201D1A2
:100D6000042219E0514501D1402215E0B14202D1DF
:100D70004FF4806210E0B94202D14FF480420BE0A0
:100D8000594502D14FF4802206E0714502D14FF45B
:100D9000800201E04FF080622F4908394A60C16A41
:100DA0003BE04FF0020808FA0CF818EA040F4FF085
:100DB00000094FF0010235D05FEA837832D50B6825
:100DC0009B0605D40B6823F00A030B6080F82120F2
:100DD0000168A94201D1022219E0514501D1202226
:100DE00015E0B14202D14FF4007210E0B94202D1D5
:100DF0004FF400520BE0594502D14FF4003206E0A7
:100E0000714502D14FF4001201E04FF00072124917
:100E100008394A6080F82090816A00291AD0BDE81C
:100E2000F05F0847082505FA0CF5254212D01B078C
:100E300010D50B6823F00E030B6090F84010C36BC5
:100E400002FA01F15960826380F8212080F8209035
:100E5000016BE2E7BDE8F09F080002401C00024081
:100E60003000024044000240580002406C00024042
:100E700030B528B308C8134914221944B1FBF2F164
:100E80008900C16310498163022141771A6843F6E2
:100E9000F0718A43D0E900142143D0E902452C4384
:100EA0002143046921434469214384692143114357
:100EB000196000214163012242770177084630BD65
:100EC000012030BDF8FFFDBF0000024070B50446B0
:100ED00000F008F90546601C02D00448007804447C
:100EE00000F000F9401BA042FAD370BD2C00002096
:100EF0002DE9F84FDFF8B8910024A9F1040B23463F
:100F00000F2709F1040AABF1040EC9E00125A54041
:100F10002A40AA427DD1674ED1F804C0ACEB060846
:100F2000B44532D014DCBCF1030F3AD009DCBCF17B
:100F3000000F2AD0BCF1010F1CD0BCF1020F31D13F
:100F40001DE0BCF1110F17D0BCF1120F2AD119E02E
:100F5000B8F5881F19D006DCB8F5803F15D0B8F574
:100F6000801F1FD111E0B8F5001F0ED0B8F5041F87
:100F700018D10AE0CB6815E0CB681B1D12E0CB68E6
:100F800008330FE0CB680C330CE08B682BB1012BDE
:100F90004FF0080303D0456104E0042302E005613B
:100FA00000E00023FF2A01D8064601E000F1040614
:100FB0004FEA840501D9A5F12005D6F8008007FA8B
:100FC00005FC28EA0C0803FA05F548EA0508C6F806
:100FD00000804D68ED0062D5374DAE6946F00106E0
:100FE000AE61AD6924F0030605F001050095334DAF
:100FF00006EB050CDCF80850A607360F07FA06F8D2
:1010000025EA0805DFF8B880404503D14FF0000815
:1010100017E044E0DFF8AC80404502D14FF0010812
:101020000FE0DFF8A480404502D14FF0020808E04D
:10103000DFF89880404502D14FF0030801E04FF0FF
:10104000040808FA06F848EA0508CCF808804D6854
:10105000D9F80060ED024D4601D5164300E09643F5
:101060002E604D68DAF80060AD02554601D5164392
:1010700000E096432E604D68DBF80060AD035D46EE
:1010800001D5164300E096432E604D68DEF80060FF
:10109000ED03754601D5164300E096432E60641CAF
:1010A0000D682A46E5407FF431AFBDE8F88F0000B7
:1010B000080401400000111000100240000001402F
:1010C00000080140000C01400010014000140140E4
:1010D0008068084000D0012070470AB10161704764
:1010E0000904FBE701488068704700002C000020DD
:1010F00070B5040025D094F83D00002520B984F88F
:101100003C50204600F050F9242084F83D0020682F
:10111000016821F0010101602068016841F400418B
:1011200001602068016821F40041016000F014FBB7
:101130004D4A6168914201D84C4900E04C498842CF
:1011400001D2012070BD4B492368B0FBF1F15E680C
:1011500026F03F060E435E606368934206D94FF463
:10116000967359434FF47A73B1FBF3F12368491C2A
:101170001E6A26F03F06314319626168914210D819
:101180004900401EB0FBF1F2521CC2F30B02042ACC
:1011900001D2042022E0B0FBF1F0401CC0F30B00B0
:1011A0001CE0A268F2B301EBC10303EB0116431E7E
:1011B000B3FBF6F35B1C43F480431B0549D092B3A9
:1011C00001EBC10202EB0111401EB0FBF1F0401C2B
:1011D000C0F30B0040F4804040F400402168CA692D
:1011E0004CF6FF739A431043C861D4E907100143DA
:1011F0002068026822F0C00211430160D4E90301B3
:1012000001432068826848F2FF339A4311438160AA
:10121000D4E9050108432168CA6822F0FF0210439F
:10122000C86001E00EE016E02068016841F00101AD
:1012300001602564202084F83D00256384F83E5039
:10124000002070BD01EB4106431EB3FBF6F35B1CAF
:10125000B3E70120C2E701EB4101401EB0FBF1F012
:10126000401CC0F30B00B7E7A086010080841E007D
:1012700000093D0040420F002DE9FF4F83B09A4620
:10128000DDE9119793460446DDF84080FFF72AFF19
:10129000054694F83D0020287FD1192301224049BA
:1012A0002046009500F010FF002876D194F83C000D
:1012B000012872D0012084F83C0020680168C90729
:1012C00003D1016841F0010101602068016821F447
:1012D00000610160212084F83D00402084F83E0038
:1012E00000262664C4F82480A4F82A90608D208506
:1012F0002C48E062CDE9007553465A4620460499D1
:1013000000F062FE70B930E02A463946204600F00F
:1013100081FF58B1206C042804D12068016841F491
:1013200000710160012007B0BDE8F08F606A21689C
:1013300000780861606A401C6062218D491E89B294
:101340002185628D521E628522685369DB435B07EB
:101350000BD469B100781061606A401C6062208D16
:10136000401E2085608D401E6085208D0028CBD1D9
:101370002A463946204600F07BFE0028CAD154F8A0
:101380003D0B016841F400710160202004F81E0942
:10139000E67766770020C6E7FFE70220C3E7000094
:1013A000020010000000FFFF10B586B00021009180
:1013B00001910291039100680F4988421AD10F4CA4
:1013C000A06940F00800A061A069694600F008002B
:1013D0000490C02000901220019003200390084840
:1013E000FFF786FDE06940F40010E061E06900F479
:1013F0000010049006B010BD0054004000100240E0
:10140000000C0140024881680278114481607047F5
:101410002C000020074810B5016841F01001016060
:10142000032000F075F80F2000F006F800F024F813
:10143000002010BD0020024070B50D4D04464FF451
:101440007A712878B1FBF0F00A490968B1FBF0F035
:1014500000F058FB48B9102C07D200222146501E3C
:1014600000F036F800206C6070BD012070BD0000F7
:101470002C000020380000200C4808B5816941F09C
:1014800001018161816901F001010091C16941F0AF
:101490008051C161C06900F08050009004484168EB
:1014A00021F0E06141F00071416008BD0010024090
:1014B00000000140002809DB00F01F0201219140DB
:1014C0004009800000F1E020C0F8001170470000E2
:1014D000F0B40E4B1B680C46C3F30223C3F107059F
:1014E000042D00D90425191D072901D2002300E08D
:1014F000DB1E012606FA05F1491E214099409E4057
:10150000761E16403143F0BC01F0B6BD0CED00E094
:10151000064900F0070208684FF6FF03184040EA4A
:101520000220034A10430860704700000CED00E001
:101530000000FA052DE9F84305460078354CC00750
:1015400054D0E0690026C00008D4E06940F0805023
:10155000E061E069012600F0805000902E480168AB
:10156000C90512D40168804641F480710160FFF71B
:10157000B9FD074605E000BFFFF7B4FDC01B6428B6
:1015800023D8D8F80000C005F6D5206A10F44070C2
:1015900021D0A98801F4407181421CD0206A1F49E2
:1015A000012220F440700A6000220A602062C00715
:1015B00011D0FFF797FD074641F2883808E000BFD9
:1015C000FFF790FDC11B414502D90320BDE8F88318
:1015D000206A8007F4D5206A696820F440700843C7
:1015E00020621EB1E06920F08050E0612878800719
:1015F00005D56068A96820F44040084360602878F9
:10160000C00605D56068E96820F480000843606082
:101610000020DBE70010024000700040400442421E
:101620002DE9F0470F46050061D0434E306800F0C9
:101630000700B84209D2306820F007003843306014
:10164000306800F00700B84251D128683B4C810750
:1016500012D5400703D5606840F4E06060602878E8
:10166000000703D5606840F4605060606068A96856
:1016700020F0F000084360602878C00728D0686830
:10168000012810D02168022810D0890700292EDAFD
:10169000616821F0030101436160FFF723FD80468B
:1016A00041F288390DE021688903EFE78901EDE710
:1016B000FFF718FDA0EB0801494502D90320BDE85A
:1016C000F0876068696800F00C00B0EB810FEFD123
:1016D000306800F00700B8420BD9306820F00700EE
:1016E00038433060306800F00700B84201D0012074
:1016F000E5E72878400705D56068E96820F4E060F0
:10170000084360602878000706D56068296920F4DE
:10171000605040EAC100606000F03EF86168084A2D
:10172000C1F30311515CC8400649086006480068CF
:10173000FFF782FE0020C2E70020024000100240B6
:10174000FA4E0008380000203000002001480068F0
:1017500070470000380000200448054900684968C7
:10176000044AC1F30221515CC84070473800002090
:10177000001002400A4F0008044805490068496803
:10178000044AC1F3C221515CC840704738000020B0
:10179000001002400A4F00080E4A51680E4801F03E
:1017A0000C03042B11D0082B0FD10C48C1F3834339
:1017B000C903C05C0AD55168084AC1F34041921E72
:1017C000515C054A5043B0FBF1F07047044948436F
:1017D000704700000010024000127A00EA4E000834
:1017E00000093D002DE9F84F040070D02078C04D6D
:1017F000C00749D06868C0F38100012807D0686835
:10180000C0F38100022809D16868C00306D52868A2
:10181000800339D560680028E7D035E06068B0F50E
:10182000803F0BD010B1B0F5A02F11D0286820F464
:1018300080302860286820F4802002E0286840F486
:1018400080302860606890B1FFF74CFC06460AE0E3
:10185000286840F480202860F0E700BFFFF742FCD2
:10186000801B642873D828688003F7D50CE0FFF745
:1018700039FC064605E000BFFFF734FC801B6428F6
:10188000F0D828688003F7D420789A4E80074FF06C
:1018900001094FF0000839D5686810F00C0F07D027
:1018A0006868C0F38100022809D16868C00306D4C3
:1018B0002868800714D52069012808D110E0206924
:1018C000B0B1C6F80090FFF70DFC074605E00AE14D
:1018D000FFF708FCC01B0228C4D828688007F7D58A
:1018E0002868616920F0F80040EAC10028600DE036
:1018F000C6F80080FFF7F6FB074604E0FFF7F2FBAF
:10190000C01B022823D828688007F7D42078000756
:101910002CD57948A169D9B1C0F80090FFF7E2FB56
:10192000074604E0FFF7DEFBC01B02280FD8686AF9
:101930008007F7D571484FF4FA510068B0FBF1F019
:10194000009000BF0098411E0091FAD20EE080E0A6
:10195000C0F80080FFF7C6FB074604E0FFF7C2FBB4
:10196000C01B022875D8686A8007F7D42078400722
:1019700060D5E8690027C00008D4E86940F08050CD
:10198000E861E869012700F0805000905C48016838
:10199000C90513D40168834641F480710160FFF7E3
:1019A000A1FB824606E000BFFFF79CFBA0EB0A000C
:1019B00064284ED8DBF80000C005F5D5E0680128A2
:1019C0000AD008B1052813D0286A20F00100286247
:1019D000286A20F0040002E0286A40F00100286232
:1019E000E06841F2883B98B1FFF77CFB82460BE050
:1019F000286A40F004002862EEE700BFFFF772FBA0
:101A0000A0EB0A0159455AD8286A8007F6D50CE0A0
:101A1000FFF768FB824605E0FFF764FBA0EB0A01D5
:101A200059454CD8286A8007F6D41FB1E86920F0E0
:101A30008050E861E06988B36968C1F381010229D7
:101A400044D00228C6F8608004D0FFF74BFB044660
:101A500038E034E0FFF746FB074604E0FFF742FBBF
:101A6000C01B02282BD828688001F7D4206AB0F563
:101A7000803F05D16868A16820F4003008436860A1
:101A8000D4E908010843696821F4741108436860C7
:101A9000C6F86090FFF726FB044606E025E000BF8D
:101AA000FFF720FB001B022809D828688001F7D522
:101AB0001BE000BFFFF716FB001B022802D9032022
:101AC000BDE8F88F28688001F4D40EE00128F7D033
:101AD0006868226A00F48031914204D1616A00F49E
:101AE0007010884201D00120EAE70020E8E70000FA
:101AF00000100240000042428004424238000020B0
:101B00000070004010B5401EB0F1807F01D301206D
:101B100010BD4FF0E02460610F21601701F0ACFAB6
:101B20000020A06107202061002010BD7047704791
:101B3000F8B5016804460868CA684B6910F00F0FD1
:101B40004FF0000559D003F0010602F490773743B7
:101B500065D0C10705D0D10503D5616C41F0010105
:101B60006164410705D5D90703D0616C41F00201DA
:101B70006164810705D5D90703D0616C41F0040188
:101B80006164010707D502F02001314303D0616C85
:101B900041F008016164616C00293AD0800604D5E7
:101BA000900602D5204601F0D3F820684069616CA8
:101BB000C0F38010090700D460B3204601F0A1F8FB
:101BC00020684069400621D52068143050E8001F85
:101BD00021F0400140E80012002AF5D1E06BA8B1E5
:101BE0006D494163E06BFFF74DF8002811D0E06BC1
:101BF000416B01B0BDE8F040084783060FD593065E
:101C00000DD52046BDE8F84001F0A2B82046FFF708
:101C10008EFFF8BD2046FFF78AFF6564F8BD266B8E
:101C20002023012E7CD1C6067AD5D60678D5086841
:101C30004868009048694FF00206400640D5E16BC5
:101C4000086840680004000CE8D0A28D8242E5D903
:101C5000E085886920282DD020680C3050E8001FCE
:101C600021F4807140E80012002AF5D12068143078
:101C700050E8001F21F0010140E80012002AF5D1D0
:101C80002068143050E8001F21F0400140E80012A5
:101C9000002AF5D184F84230256320680C3050E8E2
:101CA000001F21F0100140E80012002AF5D1E06B7E
:101CB000FEF7C4FF6663A08DE18D401A81B22AE071
:101CC000A08DE18D401A81B2E08D0028A6D00029B8
:101CD000A4D022680C3252E8000F20F4907042E841
:101CE0000007002FF5D12068143050E8002F22F0B3
:101CF000010240E80027002FF5D184F84230256327
:101D000020680C3050E8002F22F0100240E8002339
:101D1000002BF5D166632046FFF708FFF8BDFFE70B
:101D200005062BD5150629D594F841002128F5D1B3
:101D3000A068B0F5805F01D12069B0B1206A411C74
:101D40002162216800784860E08C401E0004000C8D
:101D5000E084E3D12068C16821F08001C16020687F
:101D6000C16841F04001C160D8E7206A0088C0F333
:101D700008004860206A801C2062E5E74006CDD557
:101D80005006CBD5CA68204622F04002CA6084F8CB
:101D9000413000F0FFF8C1E7F32C000870B50400F3
:101DA00004D094F84100002510B106E0012070BD78
:101DB00084F84050204600F023F8242084F84100A5
:101DC0002068C16821F40051C160204601F022F86A
:101DD0002068016921F4904101612068416921F086
:101DE0002A0141612068C16841F40051C160656405
:101DF000202084F8410084F842006563002070BD13
:101E000030B585B0002400940194029403940068D6
:101E1000184988422CD11848816941F48041816178
:101E2000816901F480410491816941F0040181617B
:101E30008069124D00F0040004904FF4007000908F
:101E4000022001900320039069462846FFF750F8CE
:101E50002815CDE90004694628460294FFF748F8A2
:101E6000002211462520FFF733FB2520FFF722FB38
:101E700005B030BD003801400010024000080140AC
:101E800090F84230202B01D00220704721B11AB1C6
:101E90000023036301F01AB80120704770B5006891
:101EA000104988421DD1104D104A2C4668880026E2
:101EB000401C81B2698020781144212801F8010C6E
:101EC00007D1012001F05CF8C8210848FEF772F93B
:101ED0006E802670BDE87040012203490448FFF778
:101EE000CFBF70BD00380140000000204C0B002027
:101EF000DC0C00202DE9F843044690F84100984698
:101F000016460D46202802D00220BDE8F88385B190
:101F10007EB100206064212084F84100FFF7E2F8E0
:101F2000A6848146E684A0682027B0F5805F02D0B1
:101F300003E00120E9E7206910B12E4600250EE0FC
:101F400000260CE08021204600F0DBFFA8B9C6B1D6
:101F500016F8010B21684860E08C401EE084E08C9C
:101F60004B464FF00002CDF800800028EAD14FF038
:101F70004001204600F0C5FF40B184F841700320C5
:101F8000C3E735F8020BC0F30800E3E784F84170BB
:101F90000020BAE77047FEE701684A69D24352055C
:101FA0000FD46FF480624A61002140F8301F202274
:101FB00042738173026942F00402026101730120DD
:101FC00070470020704700002DE9F8430446006880
:101FD0000D46DDE9089701689846164641F4807180
:101FE00001604B4600224FF001112046009700F09F
:101FF0006BF848B120680068C00502D54FF4007046
:1020000020640320BDE8F883216805F0FE00086124
:102010003B464A461549204600F09EF888B920689C
:102020004169806900903A464946204600F0F2F83E
:1020300048B1206C042804D12068016841F4007183
:1020400001600120DEE7F5B2B8F1010F09D0216887
:10205000300A08613A464946204600F0DBF800287D
:10206000E7D1206805610020CCE7000002000100F4
:1020700070B516460D4604461EE02046FFF78CFF5D
:1020800008B1012070BD681C16D0FFF72BF8801B2B
:10209000A84200D885B920684069C04340070BD5E5
:1020A000002044F8300F20216173A073216941F0B2
:1020B000200121612073E4E720684069C0434007A4
:1020C000DBD4002070BD00002DE9F047984617468C
:1020D0000D460446C1F30746DDF820902AE000BF14
:1020E000B8F1FF3F26D0FEF7FDFFA0EB0901414507
:1020F00002D8B8F1000F1DD12068012E16D08069DA
:1021000025EA00000004000C12D00020B84211D1D2
:10211000002044F8300F20216173A073216941F041
:102120002001216120730120BDE8F0874069E7E7C5
:102130000120EBE72068012E0AD0806925EA000023
:102140000004000C06D00020B842C9D00020EBE704
:102150004069F3E70120F7E72DE9F0479846164676
:102160000D4604464FF000094FF0200AC1F307471F
:1021700023E020684069C043400515D42068016809
:1021800041F40071016021686FF480604861C4F817
:10219000309084F83DA084F83E90216C41F0040119
:1021A000216484F83C9021E0701C06D0FEF79AFF71
:1021B000A0EB0800B04203D816B1012F1FD021E0D8
:1021C0002068012F15D0806925EA00000004000C6A
:1021D00018D000BF44F8309F84F80DA084F80E900A
:1021E000216941F02001216184F80C900120BDE8B3
:1021F000F087406925EA00000004000CEAD120685D
:10220000406901E02068806925EA00000004000CB4
:10221000AFD1ECE770B516460D4604461EE02046E9
:10222000FFF7BAFE08B1012070BD681C16D0FEF79A
:1022300059FF801BA84200D885B920684069C04377
:1022400000060BD5002044F8300F20216173A073E5
:10225000216941F0200121612073E4E72068406991
:10226000C0430006DBD4002070BD000070B5104DE7
:102270004FF40074002221462846FEF72EFF00F09E
:1022800019F80122160231462846FEF726FF00F013
:1022900011F8002231462846FEF71FFF00F00AF829
:1022A00021462846BDE870400122FEF716BF000017
:1022B000000C01400020401CC0B20A28FBD370472C
:1022C0000C4800B5816985B041F0080181618069E1
:1022D000694600F0080004904FF44070009003201D
:1022E0000390112001900448FEF702FE00F0AAF8C6
:1022F00005B000BD00100240000C014070B50C4C50
:10230000012251022046FEF7E8FEFFF7D3FF01222B
:10231000150229462046FEF7E0FEFFF7CBFF00221C
:1023200029462046FEF7D9FEBDE87040FFF7C2BF40
:10233000000C01402DE9F0470024164E804625464A
:102340004FF400794FF480776006040E012239467D
:102350003046FEF7C2FEFFF7ADFF49463046FEF7B6
:10236000B7FE08B1641CE4B2002239463046FEF7DD
:10237000B4FEFFF79FFF6D1CEDB2082DE4D3B8F15A
:10238000000F04D0FFF772FF2046BDE8F087FFF78B
:10239000B5FFF9E7000C01402DE9F041174E054665
:1023A00000244FF480774FF40078280601D50122ED
:1023B00000E0002241463046FEF78FFEFFF77AFF2D
:1023C000012239463046FEF788FEFFF773FF0022F0
:1023D00039463046FEF781FE072C04D101224146E2
:1023E0003046FEF77AFE6806050EFFF763FF641CB1
:1023F000E4B2082CD9D3BDE8F0810000000C014004
:1024000070B501220E4D540221462846FEF765FEA6
:102410000122160231462846FEF75FFEFFF74AFF0B
:10242000002221462846FEF758FEFFF743FF002210
:1024300031462846FEF751FEBDE87040FFF73ABF2F
:10244000000C014070B50B4D4FF400740022214682
:102450002846FEF742FE012211022846FEF73DFE05
:10246000FFF728FF21462846BDE870400122FEF70D
:1024700034BE0000000C014070B50122104D540222
:1024800021462846FEF729FEFFF714FF0122160217
:1024900031462846FEF721FEFFF70CFF214628466D
:1024A000FEF716FE08B1012400E0002400223146A8
:1024B0002846FEF712FEFFF7FDFE204670BD000025
:1024C000000C014070B5084D20212846FEF700FEA3
:1024D00018B10024204670BD012420212846FEF7B3
:1024E000F7FD0028F8D0F5E70008014010B5FFF728
:1024F000E7FE80216B2000F0C0F86420FEF7E6FCC8
:1025000000216B2000F0B9F8032000F082F80020D1
:1025100000F07AF8322000F099F80021382000F01D
:10252000ACF800216A2000F0A8F80021232000F078
:10253000A4F88021372000F0A0F8752000F011F8F1
:10254000682801D0012010BD01216B2000F095F812
:1025500000216C2000F091F8322000F077F8002084
:1025600010BD10B50446FFF74BFFD020FFF714FF56
:10257000FFF782FF2046FFF70FFFFFF77DFFFFF712
:102580003FFFD120FFF708FFFFF776FF0020FFF79E
:10259000D1FE0446FFF756FF204610BD2DE9F0415D
:1025A0001D4614460F460646FFF72AFF7006000E2A
:1025B000FFF7F2FEFFF760FF20B1FFF743FF0120B6
:1025C000BDE8F0813846FFF7E7FEFFF755FFFFF75C
:1025D00017FF012000EB4600C0B2FFF7DDFEFFF75A
:1025E0004BFF09E0012C0DD05FF00100FFF7A2FEC8
:1025F000641E05F8010BE4B2002CF3D1FFF722FFB3
:102600000020DDE70020F1E7C006010E1C2000F0ED
:1026100034B8C006010E1B2000F02FB8BC2801D32F
:10262000012110E0622801D302210CE02A2801D305
:10263000032108E0142801D3042104E00A2801D36F
:10264000052100E006211A2000F017B810B5044655
:102650004FF47A70844201D9044602E0042C00D27F
:102660000424B0FBF4F0401EC1B2192000F005F8BC
:102670006008BDE81040FFF7D1BF70B50C460546B5
:10268000FFF7BEFED020FFF787FEFFF7F5FE50B93B
:102690002846FFF781FEFFF7EFFE2046FFF77CFE9E
:1026A000FFF7EAFE18B1FFF7CDFE012070BDFFF77E
:1026B000C9FE002070BD2DE9F0411E4615460F46AB
:1026C0000446FFF79DFE6006000EFFF765FEFFF76C
:1026D000D3FE60B93846FFF75FFEFFF7CDFE00245A
:1026E0000CE0305DFFF758FEFFF7C6FE20B1FFF7A4
:1026F000A9FE0120BDE8F081641CE4B2AC42F0D335
:10270000FFF7A0FE0020F5E73EB50021114800913B
:1027100001910F4A029102608160017301750124E9
:102720004FF460220461C2614160FEF7B1F908B163
:10273000FEF78FF80820CDE90004052002906946D5
:102740000448FEF727F9002801D0FEF782F83EBDC5
:1027500000240140140C0020094808B5416941F0EB
:10276000010141614069002200F001000090114622
:102770000B20FEF7ADFEBDE808400B20FEF79ABE29
:10278000001002402DE9F04385B000242848009451
:10279000019402940394816941F02001816181696F
:1027A00001F020010491816941F004018161816996
:1027B00001F004010491816941F00801816180699F
:1027C000DFF8708000F0080004900022802140466D
:1027D000FEF783FCDFF860904FF4EE4700223946A5
:1027E0004846FEF77AFC2020CDE9000469464046C1
:1027F0000294FEF77DFB802001250226CDE900052D
:10280000CDE9024669464046FEF772FB0097039603
:10281000CDE9015469464846FEF76AFBE8038DE8B6
:10282000310069464846FEF763FB05B0BDE8F0831A
:102830000010024000080140000C01400D4810B596
:102840000B4901600C49416000214FF480428160D6
:10285000C0E9031241618161C1610162FEF748FC78
:10286000002803D0BDE81040FDF7F3BF10BD000005
:1028700000540040880C0020801A06000C4810B557
:102880000A4901604FF416514160002181600C2219
:10289000C160C0E904128161C161FFF77FFA0028BD
:1028A00003D0BDE81040FDF7D4BF10BD0038014093
:1028B000DC0C0020FEE7FEE770B5002404F1B00058
:1028C000C0B200F015F9002000F012F9102000F05D
:1028D0000FF90025002000F01DF96D1CEDB2802DD0
:1028E000F8D3641CE4B2082CE8D370BD10B580287E
:1028F00018D2002916DB3F2914DCCB1701EB5374E7
:1029000024F00703C91A01238B400749C4F3C70405
:1029100001EBC411002A0A5CDBB201D09A4300E04B
:102920001A430A5410BD0000340D002070B5C820B1
:10293000FEF7CCFA044D0024285D00F0D9F8641CA1
:10294000E4B2172CF8D370BDCC0000202DE9FF5F56
:102950000024DFF864800746A1460DF10C0A4FF011
:10296000100B00BF04F1B0008DF80C008DF80D9035
:102970008DF80EB04FF480700321CDF800A0CDE9A2
:1029800001100123002278210C48FEF775FC002578
:1029900008EBC416012F705D01D1C043C0B200F036
:1029A000B9F86D1CEDB2802DF4D3641CE4B2082C90
:1029B000D8D3BDE8FF9F0000340D0020880C002014
:1029C0002DE9FF4F203A1F460C46894602F0FF0AC8
:1029D0000025DDF834B032E00C2F09D01A4901EBA4
:1029E0000A104FF00008465D300607D55A4609E048
:1029F00016490AEB4A0001EB8000F2E7BBF1000F39
:102A000012D0002221460098FFF770FF7006641C68
:102A1000060EE4B2A4EB0900B84207D100984C4678
:102A2000401CC0B2009008E00122EBE708F1010071
:102A300000F0FF08B8F1080FD6D36D1CEDB2BD420F
:102A4000CAD3BDE8FF8F000057050020E300002037
:102A50002DE9FF4F81B04FF00007DDF83CB01E4676
:102A600015008146B84601D5012755420E9800242D
:102A70004FEA500A2AE0301B401EC1B20A2002F081
:102A8000C3F9B5FBF0F00A21B0FBF1F201FB120033
:102A9000B8F1000F05D1711E8C4202DA50B14FF02F
:102AA00001083030C2B20AFB0490C0B2CDF800B0C9
:102AB0000E9B06E00AFB04900E9BC0B2CDF800B05E
:102AC00020220299FFF77CFF641CE4B2B442D2D307
:102AD000002F09D0A9F10800C0B2CDF800B02D2216
:102AE0000E9B0299FFF76CFF05B0BDE8F08F000068
:102AF00001B584B001214FF4807204A88DE807006D
:102B00000B46002278210248FEF7B6FB05B000BD57
:102B1000880C002001B584B001214FF4807204A814
:102B20008DE807000B46402278210248FEF7A4FBFF
:102B300005B000BD880C0020704710B5012000F0E2
:102B40003DF8BDE81040002000F030B84FF40041DF
:102B50000148FEF7BDBA0000000C01402DE9F0412C
:102B60000024064625464FF0800800BF28FA05F7E6
:102B700007EA060000F012F8012000F017F8FFF74E
:102B8000E5FF012800D13C43002000F00FF86D1C48
:102B9000EDB2082DEAD32046BDE8F08102464FF49D
:102BA00080410148FEF799BA000C014002464FF4FB
:102BB00000510148FEF791BA000C014002464FF463
:102BC00080510148FEF789BA000C014070470000AF
:102BD0002DE9FC414FF480612148FDF7EBFA2149D2
:102BE000214800F019FA00260C251F48CDE90056AF
:102BF0000278042331463046FFF72AFF1948CDE911
:102C000000560288052310210020FFF721FF04222F
:102C10001649002000F0DDF9154F0024CDE90056DB
:102C200020073A5D000E02231E21FFF711FF641CEE
:102C3000E4B2042CF2D30D4F002400BFCDE90056BE
:102C400020073A5D000E02233121FFF701FF641CCB
:102C5000E4B2042CF2D3BDE8FC410020FFF776BEBD
:102C6000340D002026000020250000202800002030
:102C700021000020FEF7C6BB30B593B0282168467E
:102C8000FDF798FA14210AA8FDF794FA002501200F
:102C90000F9510951195010412958DE8230004906D
:102CA0004FF4E010CDE90810022407946846FEF7BF
:102CB00099FD08B172B6FEE70AA90F2081E831003C
:102CC0004FF48060CDE90D0502210AA8FEF7A8FCAB
:102CD00008B172B6FEE74FF4004011900F940FA8B0
:102CE000FEF728FC002801D072B6FEE713B030BD15
:102CF000704710B5406A0021C185C184FEF717FFF7
:102D000010BD01680C3151E8002F22F4907241E8A7
:102D10000023002BF5D10168143151E8002F22F077
:102D2000010241E80023002BF5D1016B012909D1F3
:102D300001680C3151E8002F22F0100241E8002315
:102D4000002BF5D1202180F842100021016370474B
:102D500008B590F84210222901D0022008BD8268EF
:102D60004FF480539A4201D1016921B1816A9A429C
:102D70001BD04AB10AE00268816A5268C2F30802B5
:102D80000A80816A891C08E0026972B1026852688F
:102D900002F07F020A70816A491C8162C18D491E5E
:102DA0000904090CC18503D01BE002685268F1E7F1
:102DB0000168CA6822F02002CA600168CA6822F469
:102DC0008072CA6001684A6922F001024A612021CA
:102DD00080F8421000214163026B012A03D0FFF703
:102DE0005DF8002008BD016301680C3151E8002F37
:102DF00022F0100241E80023002BF5D101680A6897
:102E0000D20602D50A6849680091818DFEF78EFED0
:102E1000E7E7000070B5044600680169E26821F444
:102E20004051114301612169A06808436169084369
:102E30002168CA6841F20C639A430243CA60206861
:102E40004169A26921F44071114341611E49206822
:102E5000884202D1FEF790FC01E0FEF77DFC00EB1A
:102E6000C00101EB0012606864218000B2FBF0F346
:102E7000B3FBF1F36FF018067343B2FBF0F5B2FB4E
:102E8000F0F605EB8305322303EB0515B5FBF1F5F1
:102E9000B6FBF1F605F0F00505EB0615B2FBF0F612
:102EA000B2FBF0F0B0FBF1F06FF01802504306EB0C
:102EB000800003EB0010B0FBF1F0216800F00F0080
:102EC0002844886070BD000000380140816282851E
:102ED000C28500214164222180F84210016921B19C
:102EE0000168CA6842F48072CA6001684A6942F0A7
:102EF00001024A610068C16841F02001C160002000
:102F000070472DE9F843984617460D460446089E3B
:102F100024E0701C22D0FEF7E5F8A0EB0800B042D8
:102F20001AD8CEB12068C168490717D5802D15D0B1
:102F3000402D13D00168C94309070FD4016800254B
:102F4000406800902046FFF7DCFE0820606484F8AB
:102F500040500120BDE8F8830320FBE720680068AB
:102F600035EA000004D00020B842D2D00020F1E7BA
:102F70000120F9E70148FEF7DBBD0000DC0C002072
:102F800010B5FDF769FC0F490F4C0A78502A0AD09A
:102F9000492A0FD0442A05D14978322902D1FDF7B8
:102FA0001CFAA08010BD49783229FBD1FDF715FA33
:102FB000208010BD49783229FBD1FDF70EFA6080E0
:102FC00010BD00004C0B002004000020FEE7FFF7BE
:102FD000B4BD70B5044615460E460020FFF7EEFD61
:102FE0000320FFF7BBFDC4F30740FFF7B7FDC4F3B1
:102FF0000720FFF7B3FDE0B2FFF7B0FD002404E0C7
:10300000FF20FFF7ABFD3055641CAC42F8D3BDE8A0
:1030100070400120FFF7D2BD70B505460C46002078
:10302000FFF7CCFD9F20FFF799FDFF20FFF796FDEE
:103030002870FF20FFF792FD4FF6FF7101EA002094
:103040002080FF20FFF78AFD218808432080BDE80B
:1030500070400120FFF7B2BD0FB4054B10B503A9B6
:10306000044A029800F028F810BC5DF814FB000038
:10307000893C0008480B00200907090E002804DBE2
:1030800000F1E02080F80014704700F00F0000F11C
:10309000E02080F8141D704702E008C8121F08C124
:1030A000002AFAD170477047002001E001C1121FC9
:1030B000002AFBD1704700002DE9FF4F8BB08846F6
:1030C0000546002606E025280BD0DDE90D129047C5
:1030D0006D1C761C28780028F5D10FB03046BDE86D
:1030E000F08F0024A146A2460122AE4900E004432D
:1030F00015F8013F203B02FA03F00842F7D1287887
:103100002A2810D06FF02F022878A0F13001092969
:1031100015D809EB890102EB410144F0020400EBF0
:1031200001096D1CF0E758F8041B5FEA010903D59B
:1031300044F40054C9F1000944F002046D1C2878DD
:103140002E2817D115F8010F44F004042A280ED0B8
:103150006FF02F022878A0F1300109290AD80AEB74
:103160008A0102EB410100EB010A6D1CF2E758F8FD
:1031700004AB6D1C28786C280FD006DC4C2817D0C7
:1031800068280DD06A2814D104E0742810D07A2859
:103190000FD10DE044F400140AE044F4801401E07F
:1031A00044F440146978814202D104F580146D1C06
:1031B0006D1C2878692865D006DC00288DD063282E
:1031C00027D0642806D15DE06E2808D073282AD065
:1031D000752877D0DDE90D129047761CE0E0C4F346
:1031E0000250022809D003280DD0D8F80010042876
:1031F0000DD00E6008F10408D2E0D8F80010F217E4
:10320000C1E90062F6E7D8F800100E80F2E70E7010
:10321000F0E718F8041B8DF8001000208DF801006D
:10322000EB46012003E058F804BB4FF0FF30610784
:103230004FF0000701D40AE07F1C57450DDA8742A2
:10324000FADB1BF807100029F6D106E07F1C874245
:10325000FCDB1BF807100029F8D1DDE90D23A9EBF1
:1032600007008146214600F0B1F83044C61904E059
:10327000DDE90D121BF8010B90477F1EF8D22146A5
:10328000484688E058F8040BC4F302514FF00A0B8B
:10329000032900D100B2042900D140B2002802DA8B
:1032A00040422D2102E0210505D52B218DF8241067
:1032B000012104E006E0E10710D02021F6E708AF85
:1032C000089113E058F8040BC4F302514FF00A0BB5
:1032D000032900D180B2042900D1C0B20021EEE759
:1032E0005946FDF78EF8303107F8011D0028F7D157
:1032F000ADEB070000F1200B600702D524F4803409
:1033000001E04FF0010ADA4502DDAAEB0B0000E014
:103310000020824600EB0B0108980144A9EB010054
:103320000A90E00306D4DDE90D2321460A9800F057
:103330004DF806444FF0000908E009A911F809000A
:10334000DDE90D12904709F10109761C08998945BC
:10335000F3DBE0030CD5DDE90D2321460A9800F0EC
:1033600035F8064404E0DDE90D1230209047761C64
:10337000BAF10001AAF1010AF5DC05E0DDE90D1260
:1033800017F8010B9047761CBBF10001ABF1010B64
:10339000F4DC0A982146DDE90D2300F005F8064427
:1033A0006D1C97E6092801002DE9F041044600252F
:1033B0001E461746880404D405E039462020B0474D
:1033C0006D1C641EF9D52846BDE8F0812DE9F04159
:1033D000044600251E469046C80301D5302700E06C
:1033E0002027880404D505E041463846B0476D1CC7
:1033F000641EF9D52846BDE8F08100002DE9FE4F96
:1034000007460E460025684600F04EFC00246FF08B
:103410000F0AE8464FF0010957F8240056F8241027
:10342000401A00D54042FCF7B1FF5146FCF7A2FF1D
:1034300058F8241011F0FF4F0BD0FCF75DFF4FF050
:103440007E51FCF721FF0A4920F00040884205DC4C
:1034500007E0084908440849884202D309FA04F001
:103460000543641C032CD7DB2846BDE8FE8F000013
:10347000295C0F3E666666C19A99D90010B504466C
:10348000FEF764F90349B0FBF1F16143491EFDD237
:1034900010BD000000093D0008B560B120208DF886
:1034A000000028208DF8010030208DF8020038201F
:1034B0008DF8030004E0A32204216846FCF773FEA4
:1034C0006A46042140F69E2001F074FC01F032F9B6
:1034D00008BD00003EB5044602208DF80000CA2059
:1034E0008DF80100E3208DF8020009208DF803001B
:1034F0006A460421682001F05DFCA3208DF80000DD
:10350000610609D5C0218DF80110C8218DF802107F
:10351000C2218DF8031005E08DF801008DF802003E
:103520008DF8030014F4C07F09D0C4218DF8041075
:10353000CC218DF80510C6218DF8061005E08DF818
:1035400004008DF805008DF806008DF808008DF850
:1035500007008DF809006A460A2140F6A72001F00D
:1035600029FCA0074FF0D80503D020208DF80000DB
:1035700001E08DF800506A46012140F6B62001F0C6
:1035800019FCA00601D5012000E0002000F08EF813
:1035900014F4C07F1ED0E0050AD5B2208DF80000DB
:1035A0008B208DF80100B6208DF802009B2009E0E9
:1035B000B0208DF8000080208DF80100B4208DF837
:1035C000020090208DF803006A46042140F6A220F4
:1035D00001F0F0FBE1074FF40B6022D0F8218DF8E9
:1035E00000106A46012101F0E5FBFA21072000F0F6
:1035F00097FA072000F062FA012000F07FFA6420B9
:1036000000F022FB4FF4FA7000F02EFBC821254891
:1036100000F01CFA282000F031FA0A2000F03EFAEF
:1036200005E08DF800506A46012101F0C3FBA007B8
:1036300003D5D9208DF8000001E08DF800506A46CE
:10364000012140F23D7001F0B5FB600701D501207A
:1036500000E0002000F048F8E00601D5012000E07D
:103660000020FFF719FF104D44F00800688101F0B9
:1036700061F80020A873600601D50620A87314F431
:10368000C07F02D0A87B801DA87314F0140F02D055
:10369000A87B1030A873A00702D0A87B001DA873D8
:1036A00000203EBD09E3CA02240D00200EB54FF4F0
:1036B000976310B106A107C901E008A207CA8DE807
:1036C00007006A460921184601F074FB0EBD000090
:1036D000B8AAB38DB4980D355D000000B8AAAAAAA7
:1036E000B088C3C5C700000008B560B1C0208DF820
:1036F0000000C2208DF80100C4208DF80200C62011
:103700008DF8030004E08B2204216846FCF74BFD92
:103710006A46042140F6982001F04CFB01F00AF8BB
:1037200008BD0000C8234FF48062024940F6F6301D
:1037300000F02ABF644F00082DE9FF41044603A8AA
:1037400000F00AFEBDF80C00410CC3032F480289AB
:1037500002F00300550754F8200000D54042C2F3A0
:10376000C105960654F8255000D56D42C2F3811666
:10377000D20554F8264000D56442A0FB0367C21767
:1037800002FB037200FB0120820042EA9670A5FB57
:103790000367EA1702FB037205FB0122950045EA65
:1037A0009672A4FB0367E51705FB037304FB013165
:1037B0008B0043EA9671030E8DF80030030C8DF8F0
:1037C0000130030A8DF802308DF80300100E8DF8D9
:1037D0000400100C8DF80500100A8DF80600080E84
:1037E0008DF80800080C8DF80900080A8DF80A0009
:1037F0008DF807208DF80B106A460C214FF42570C8
:1038000001F0D8FA04B0BDE8F0810000240D0020DA
:1038100030B5044613A285B007CA8DE807004FF003
:10382000FF35C82C16D8C820B0FBF4F1491E080A91
:103830008DF80C008DF80D1003AA022140F216201D
:1038400001F0B8FA30B96A460C2140F6C12001F007
:10385000B1FA10B1284605B030BD0548848100207A
:10386000F9E70000FEF2ABC4AAF1DFDFBBAFDFDF98
:10387000240D0020F8B53049098901F0030250F801
:1038800022404A0700D56442C1F3C1028B0650F8BA
:10389000222000D55242C1F3811350F82330C805CD
:1038A00000D55B42254984FB0140850045EA9470C0
:1038B00082FB0142A40F44EA820483FB0121950F9D
:1038C00045EA8105010E8DF80010010C8DF80110FC
:1038D000010A8DF802108DF803006A4604214FF4A6
:1038E000747001F067FA4FF0FF3688B9200E8DF83A
:1038F0000000200C8DF80100200A8DF802008DF8E0
:1039000003406A4604214FF4757001F053FA08B180
:103910003046F8BD280E8DF80000280C8DF8010007
:10392000280A8DF802008DF803506A4604214FF4EE
:10393000767001F03FFAF8BD240D002009E3CA02B9
:103940002DE9FF4104463CA004F003030068029007
:103950003AA0006803903AA006683AA0056802A859
:10396000C15C8DF80010C4F3C101425C8DF80120E8
:10397000C4F38112805C8DF8020003A8C35C8DF84B
:103980000430415C8DF80510805C8DF806006A46B5
:10399000032140F2264001F00DFA4FF0FF37E0BB63
:1039A00001AA032140F22A4001F004FAA8BBCDE9A4
:1039B000006560070BD59DF8000040F001008DF810
:1039C00000009DF8040040F001008DF80400A006FE
:1039D0000BD59DF8010040F001008DF801009DF825
:1039E000050040F001008DF80500E0050BD59DF8BD
:1039F000020040F001008DF802009DF8060040F042
:103A000001008DF806006A4603214FF4886001F03A
:103A1000D1F910B901AA032100E004E040F23140DD
:103A200001F0C8F918B1384604B0BDE8F081064885
:103A300004810020F8E700004CCD6C000CC92C007C
:103A40003656760026466600240D00204FF47A7222
:103A500090FBF2F008B54843010E8DF80010010C00
:103A60008DF80110010A8DF802108DF803006A46E6
:103A700004214FF4AE7001F09DF908BD0521B0FBA3
:103A8000F1F008B5010A8DF800108DF801006A46C2
:103A900002214FF4AD7001F08DF908BD0521B0FB96
:103AA000F1F008B5010A8DF800108DF801006A46A2
:103AB00002214FF4AC7001F07DF908BD08B500217A
:103AC0008DF80010C10702D030218DF80010810759
:103AD00005D59DF8001041F00C018DF8001040074D
:103AE00005D59DF8000040F003008DF800006A46FF
:103AF00001214FF4A47001F05DF908BD08B560B173
:103B0000042800D90420401E8DF800006A460121D7
:103B100040F24F1001F04EF908BD0120F3E700001C
:103B20002DE9FC41054640074FF0FF367CD0B1F54A
:103B3000C86F79D80846FCF732FC3E49FCF7DCFB3D
:103B4000074601A800F0EAFB9DF80400022806D011
:103B500004280DD008282ED0102865D134E00E217D
:103B60003846FCF707FCFCF738FC84B2324907E022
:103B70000D213846FCF7FEFBFCF72FFC2F4984B2E1
:103B80003846FCF787FBFCF728FC210A8DF800106B
:103B900080B28DF80140010A8DF802108DF8030003
:103BA000E8076C4620D0224602214FF4EA7001F06B
:103BB00001F9C8BB11E00C213846FCF7DBFBFCF730
:103BC0000CFC84B21E49DBE70B213846FCF7D2FB24
:103BD000FCF703FC84B21B49D2E7A21C02214FF47C
:103BE000927001F0E7F8F8B9A8070DD56A460221EE
:103BF0004FF4EC7001F0DEF8B0B9A21C02214FF4D2
:103C0000947001F0D7F878B9680710D56A46022198
:103C10004FF4EE7001F0CEF830B9A21C02214FF43F
:103C2000967001F0C7F810B13046BDE8FC81002065
:103C3000FBE7000000004843000040460000C0458C
:103C4000000040450000C0440521B0FBF1F008B57C
:103C5000010A8DF800108DF801006A4602214FF428
:103C6000EF7001F0A7F808BD0521B0FBF1F008B531
:103C7000010A8DF800108DF801006A4602214FF408
:103C8000ED7001F097F808BD38B504468DF80000D6
:103C90004FF6FF73012269460248FEF72BF92046D2
:103CA00038BD0000DC0C00202DE9FE430646264806
:103CB00001AB042240680D210078FEF76FFC10B1C3
:103CC0000720BDE8FE839DF804101C2000EAD10205
:103CD0009DF80710DFF87490C1F301131A438DF8B3
:103CE00000209DF80520C1F3810300EAD2021A43A7
:103CF0008DF801209DF8062001F0030100EAD200B2
:103D000008430024124F8DF80200A0466D46285D3E
:103D100010B146F824900AE046F824800DE000BF78
:103D200056F824003946FCF7B5FA46F82400285D19
:103D3000401E10F0FF002855F2D1641CE4B2032CA1
:103D4000E5D30020BDE700003C0000207B14AE3E20
:103D50001D5A843F2DE9FE4F05460120C14E8DF8C6
:103D600000004FF000088DF8018030680C461746BF
:103D7000817C70686B4602220078FEF79CFC4FF055
:103D8000FF3A00287AD1C820FDF7A0F88DF800800E
:103D900030686B460122C17B70680078FEF78BFCAF
:103DA0000028EFD130686B460122417970680078B5
:103DB000FEF781FC0028E5D130686B460122817C4A
:103DC00070680078FEF777FC0028DBD130686B461E
:103DD0000122C17D70680078FEF76DFC0028D1D10A
:103DE00030686B460122017970680078FEF763FC49
:103DF0000028C7D14FF00C098DF8009030686B4651
:103E00000122017970680078FEF755FC002835D151
:103E10000F20FDF75BF8B06A6B460122407A8DF8FF
:103E200000003068817870680078FEF744FC002854
:103E300024D1B06A6B460122007A8DF80000306808
:103E4000417870680078FEF736FC002873D1B06ABC
:103E5000807A0FB140F0E0008DF8000030686B46CA
:103E60000122817970680078FEF725FC002862D174
:103E70002FB1B06AC07A40F0E00001E04AE01820BB
:103E80008DF8000030686B460122C17970680078B7
:103E9000FEF711FCF0BB17B1C820FDF717F8402062
:103EA0008DF8000030686B46012201797068007857
:103EB000FEF701FC70BB78208DF8000030686B467F
:103EC0000122417970680078FEF7F5FB10BB3220C3
:103ED000FCF7FCFF8DF80080306847466B4641795F
:103EE000706801220078FEF7E6FB98B931687068C7
:103EF000B046897A00786B460222FEF74FFB48B93C
:103F0000BDF80000AF6040BAB0FBF9F06F60C6B218
:103F10002F6000E00FE0A76067602760002739E0AE
:103F2000D8F80010D8F804006B46C97A00780C2243
:103F3000FEF734FB10B15046BDE8FE8FBDF800001F
:103F4000236840BA02B2BDF80200BDF804101A445A
:103F5000226040BA626800B21044606049BAA0684A
:103F600009B20844A060BDF806002B6840BA02B24E
:103F7000BDF808001A4440BA01B2BDF80A002A6030
:103F80006A6840BA11446960A96800B208447F1C9D
:103F9000FFB2A860B742C3D328688322C1170904BF
:103FA00041EA104100040023FCF7BCF8324600232C
:103FB000FCF7B8F8286068688322C117090441EA51
:103FC000104100040023FCF7ADF832460023FCF753
:103FD000A9F86860A8688322C117090441EA104162
:103FE00000040023FCF79EF832460023FCF79AF801
:103FF000A86020684FF40065C117090441EA104128
:1040000000042A460023FCF78DF832460023FCF713
:1040100089F8206060682A46C117090441EA104106
:1040200000040023FCF77EF832460023FCF77AF800
:104030006060A0682A46C117090441EA10410004E3
:104040000023FCF76FF832460023FCF76BF8A06002
:10405000002802DDA0F5803001E000F58030A0608E
:10406000002069E73C0000202DE9F84F81462E48EA
:104070008846002540686B46032200780D21FEF734
:104080008DFA10B10720BDE8F88F9DF800000024DC
:1040900000F01F008DF800009DF801006FF00F0B7D
:1040A00000F01F008DF801009DF802006E4600F040
:1040B0001F008DF802004FF0010A00BF59F82410CC
:1040C00058F82400081A00D54042FCF75FF9594619
:1040D000FCF750F90746305DC0B1144802E01449BE
:1040E000FCF7D8F8315D491E11F0FF013155F6D1CA
:1040F00001463846FCF700F94FF07E51FCF7C4F852
:104100000C4920F00040884205DC07E00A483844AA
:10411000B0F1D97F02D90AFA04F00543641C032CDC
:10412000CCDB2846AFE700003C0000200000C8417F
:1041300054E3853F295C0F3E0000E0BE00B5024617
:1041400000F00DF80346D01C00F009F843EAC00364
:10415000901D00F004F843EA801080B200BD90F991
:104160000010002902DD4FF00000704702DA4FF026
:104170000400704790F90110002902DD4FF00100A2
:10418000704702DA4FF00500704790F902000028EE
:1041900002DD4FF00200704702DA4FF00600704770
:1041A0004FF0070070470000FDF734F9FEF764FD9B
:1041B000FEF7E8FAFEF7D0FAFEF760FBFEF7A4FA86
:1041C000FEF73CFBFEF703FFFCF754FAFEF78EF90F
:1041D00000F056F801220D490D48FDF751FEFEF79B
:1041E000A5FBFEF769FB2E20FEF782FC094D0A4C69
:1041F000FCF740FAFEF7ECFCFEF764F92870A379AF
:104200006279217905A0FEF727FFF1E70000002081
:10421000DC0C002020000020180000202532642043
:104220002C25326420202C2532640A002DE9F0412F
:10423000124C20F00101002594F8240010B1002058
:10424000BDE8F081A07A4FF0FF3668B10840277CC6
:104250002074884200D0354641B1012000F018FE9C
:1042600000F068FA38B127743046E9E7207D00B1E4
:10427000012000F00DFE2846E2E700003C0000208F
:1042800010B5FEF71DF800F0EDF808B10A2010BDDA
:10429000782000F033FD10F0FF0F01D0012010BD99
:1042A0007820FFF7C3FF10F0FF0F01D0022010BDF0
:1042B000642000F0E3FC10F0FF0F01D0032010BDDC
:1042C000FFF730FA10F0FF0F01D0042010BD1248A4
:1042D000FFF734FFFFF734FB10F0FF0F01D005208C
:1042E00010BD40F27310FFF7F5F810F0FF0F01D08A
:1042F000062010BD6420FFF78BFA10F0FF0F01D0ED
:10430000072010BD00F088FD012000F0DDFB10F05B
:10431000FF00F6D0092010BD680000200D494A7A40
:1043200042B1012A08D0022A0FD0032A0FD04FF041
:10433000FF307047022200E004220270C97C11B1F4
:104340001106C90D0170002070470822F5E7102200
:10435000F3E700003C0000200F494A7A42B1012AED
:1043600009D0022A11D0032A12D04FF0FF30704733
:104370004FF4804201E041F69C720280C97C11B189
:10438000C2F34E010180002070474FF48052F4E7E1
:104390004FF40062F1E700003C0000200B49097A6D
:1043A00039B1012907D002290AD003290BD00021F5
:1043B00003E0FA2101E04FF4FA7101800020704718
:1043C0004FF47A71F9E74FF4FA61F6E73C00002008
:1043D0000A49097A41B1012908D002290AD00329E2
:1043E0000AD04FF0FF307047054900E005490160F1
:1043F000002070470449FAE70449F8E73C00002030
:1044000000000343000083423333034233338341CC
:104410000C49C97A072913D2DFE801F01204060A11
:104420000C0E1000BC2100E06221018000207047CA
:104430002A21FAE71421F8E70A21F6E70521F4E733
:104440000021F2E73C000020054991F8242012B138
:104450004FF0FF307047C98901800020704700008D
:104460003C0000202DE9FC41464C80208DF80000E6
:1044700020686B460122817C60680078FEF71BF99A
:104480004FF0FF37002875D16420FCF71FFD002591
:104490008DF8005020686B460122817C60680078AE
:1044A000FEF709F9002865D120686B460622817D58
:1044B00060680078FEF772F800285BD19DF805006F
:1044C0009DF80310C007400F01F0010140EA4100D0
:1044D0009DF801104FF0010601F00101084304D0DE
:1044E000012831D0022810D044E020686B46012218
:1044F000C17860680078FEF751F8D8BB9DF80000DD
:1045000010F00F0036D004281ED0E574FF2004F808
:104510000A0F4FF6FF7104F8020C04F8010C6070EA
:10452000A180A0712072A67026766576E572A572CC
:10453000E56025616561A576E576A5834FF4FA60AF
:1045400000F0FEFAB0B901E0E674DFE7022000F007
:1045500019FA78B92A2000F05BFB58B9322000F034
:104560008DFB38B90020FFF761FE18B9002000F07C
:104570003DFA10B13846BDE8FC81002000F0BEFBDA
:104580000020F8E73C0000202DE9FF4FDFF8948081
:10459000064685B098F8250015460F464FF0FF39BE
:1045A000B0BBAFB3002420E0301B102800DD10208A
:1045B00080B283463A1901469246204600F0FAFB43
:1045C00030BB6A465946204600F08AF800BB504688
:1045D0005A466946FBF7F9FD20B16FF0010009B0BA
:1045E000BDE8F08F04EB0B0084B2B442DCD3280AA0
:1045F0008DF810008DF81150D8F80000444604AB37
:10460000817ED8F8040002220078FEF754F808B141
:104610004846E4E7012084F825000898E08400205B
:10462000DDE700003C0000202DE9F84305464FF08F
:10463000FF39282844D80727284C00267DB10120BF
:1046400000F0B4FA20208DF800004FF00108012D91
:1046500017D0052D18D88DF8018005201FE0002007
:1046600000F0A4FA8DF800608DF8017020686B46A8
:104670000222817C60680078FEF71DF800BB267579
:1046800029E08DF80160E8E7142D04D802208DF8A8
:1046900001000A2003E003208DF80100142000F03F
:1046A000B7FA9DF801006B4607EB80108DF801000A
:1046B00020680222817C60680078FDF7FCFF10B161
:1046C0004846BDE8F8830820A072267384F8148059
:1046D0000020FFF7ABFD0020F3E700003C000020C6
:1046E000F8B516000D464FF0FF371FD0104CA17AD9
:1046F000E1B1010A8DF80010C0B28DF80100411936
:1047000060684289914211D8216800786B46097E21
:104710000222FDF7D0FF48B92068EAB23346417D56
:1047200060680078FDF73AFF002800D03846F8BDF1
:104730003C000020F8B5564C4FF0FF36A07A002818
:104740007DD000258DF8005020686B460122C17B8A
:1047500060680078FDF7AFFF002870D120686B46D5
:104760000122417960680078FDF7A5FF002866D135
:1047700020686B460122017960680078FDF79BFF95
:1047800000285CD194F82400E0B30C208DF80000E0
:1047900020686B460122017960680078FDF78BFF85
:1047A000002872D13220FCF791FBC0208DF8000068
:1047B000A07AC00702D0E0208DF8000020686B4688
:1047C0000122017960680078FDF775FF00285CD14F
:1047D000607C18B102208DF8000001E08DF80050D7
:1047E00020686B460122C17B60680078FDF763FF9B
:1047F00028BB8DF8005020686B4601224179606823
:1048000000783EE0FFE704208DF8000020686B464A
:104810000122017960680078FDF74DFF78B9A07C2E
:1048200090B9A07AC0070FD05FF060008DF800004B
:1048300020686B46012201796068007800E024E07E
:10484000FDF739FF08BB01E04020EFE73220FCF71D
:104850003DFB607C18B101208DF8000001E08DF86F
:10486000005020686B460122C17B60680078FDF72C
:1048700022FF50B92068064B01224179606810334D
:104880000078FDF718FF002800D03046F8BD000082
:104890003C0000202DE9F047394C82468AB094F85C
:1048A00024000F4620B1002000F00EF9012600E0A0
:1048B000002607A8FFF772FD06A8FFF72FFD09A83D
:1048C000FFF7A6FD08A8FFF7BFFD94F80A9094F83B
:1048D00010800025002239465046FFF73BFA10B100
:1048E0006D1C022DF6DB022D1AD00025012203A932
:1048F0006846FFF72FFA10B16D1C022DF6DB022D72
:104900000ED003A93846FEF779FDC7B26946504676
:10491000FFF7AAFB10F0FF0F4FF0000502D002E0F6
:10492000002503E001250FB945F00205FF202072A4
:104930006072E0724FF6FF71E181A0722074012075
:104940002073BDF81C0000F0FBF89DF8180000F083
:1049500019F8BDF8240000F05BF9BDF8200000F064
:104960008DF9484600F0CAF94046FFF75FFC16B1E2
:10497000012000F0A9F80AB02846BDE8F087000041
:104980003C00002038B5184C4FF0FF35A17A19B320
:10499000022806D0042806D008280ED010281BD1E3
:1049A0000DE0002000E008208DF80000607A9DF8FE
:1049B0000010B0EBD10F04D005E01020F4E7182070
:1049C000F2E7002038BD20686B460122C17960689B
:1049D0000078FDF770FE08B1284638BD9DF800004C
:1049E000C0086072EDE700003C000020F8B5354CCF
:1049F0000546A07CA84201D10020F8BD31484FF007
:104A0000FF366B46D0E900104FF0010209790078BB
:104A100035B3FDF7C3FD70BB9DF800006B4620F079
:104A200020008DF80000206801220179606800787C
:104A3000FDF741FEF8B90320FCF748FA02208DF893
:104A4000000094F8220078B382202BE020686B46A7
:104A50000122017D60680078FDF72DFE58B92EE037
:104A6000FDF79CFD38B9A07AC0079DF8000003D07F
:104A700040F0200002E00CE020F020008DF8000063
:104A800020686B460122017960680078FDF713FE0B
:104A900008B13046F8BD0320FCF718FA94F822005C
:104AA00000B180208DF8000094F823000028CDD0BC
:104AB0009DF8000040F030008DF80000C6E7A574B6
:104AC0009AE700003C00002038B51C4C94F82410F4
:104AD00081421DD0002500B394F82500D0B10020FC
:104AE00000F0D6F90020FFF781FFE08C00F0C6F857
:104AF0008DF8005060686B46012200782321FDF795
:104B0000DAFD012084F8240000F0C2F9FFF712FE5C
:104B1000002038BD4FF0FF3038BD002000F0B8F95C
:104B2000207C8DF8000060686B460122007823210C
:104B3000FDF7C1FD84F82450E8E700003C000020A8
:104B400038B5194C4FF0FF35A17A31B3FA2809D0A6
:104B5000B0F5FA7F08D0B0F57A7F0FD0B0F5FA6FD4
:104B60001BD10DE0002000E008208DF80000207A25
:104B70009DF80010B0EBD10F04D005E01020F4E751
:104B80001820F2E7002038BD20686B4601228179A9
:104B900060680078FDF78FFD08B1284638BD9DF8A4
:104BA0000000C0082072EDE73C00002038B5174C2B
:104BB000054694F82300A84201D1002038BD0DB16C
:104BC000302000E000208DF80000A07C28B19DF886
:104BD000000040F002008DF8000094F8220028B197
:104BE0009DF8000040F080008DF8000020686B46C2
:104BF0000122017D60680078FDF75DFD10B14FF086
:104C0000FF3038BD84F82350D7E700003C00002077
:104C100038B5194C4FF0FF35A17A31B3BC2801D318
:104C2000012010E0622801D302200CE02A2801D3E1
:104C3000032008E0142801D3042004E00A2801D34B
:104C4000052000E006208DF80000E07A9DF80010B5
:104C5000884201D1002038BD20686B46012281784E
:104C600060680078FDF727FD08B1284638BD9DF83B
:104C70000000E072EEE700003C000020F8B51E4D99
:104C800004464FF0FF37A87A48B395F8240030BBAC
:104C9000287D4FF47A7648B164B1282C03D8E0B26D
:104CA000FFF7C2FC26E00020FFF7BEFC042C05D273
:104CB000042406E00020FFF7B7FCF9E7B44200D96E
:104CC0003446B6FBF4F0401E8DF8000028686B46B1
:104CD0000122417868680078FDF7EDFC08B138469C
:104CE000F8BD9DF80000401CB6FBF0F0E8814008DC
:104CF000FFF78EFF0020F8BD3C000020F8B5054608
:104D000010F0700F4FF0000601D0012004E015B143
:104D10008DF8006002E040208DF80000244C6B46C6
:104D200001222068817C60680078FDF7C4FC4FF0A8
:104D3000FF3760BB9DF8000020F0400020738DF825
:104D40000060680602D404208DF80000A80605D48F
:104D50009DF8000040F002008DF80000E80605D440
:104D60009DF8000040F001008DF80000280705D4F0
:104D70009DF8000040F038008DF8000020686B4678
:104D80000122C17C60680078FDF795FC10B1A67225
:104D90003846F8BD25B1082D02D00020FFF706FFE8
:104DA000A57226753220FCF791F80020F8BD0000AE
:104DB0003C000020F8B516000D464FF0FF371FD01D
:104DC000104CA17AE1B1010A8DF80010C0B28DF843
:104DD0000100411960684289914211D82168007828
:104DE0006B46097E0222FDF766FC48B92068EAB2EC
:104DF0003346417D60680078FDF75DFC002800D0F7
:104E00003846F8BD3C0000200246012000E0504337
:104E1000491EC9B2FBD2704710B58AB005A901A8D6
:104E2000FFF738FD032802D001200AB010BD04A806
:104E3000FFF7CEFA0198FBF7A9FA04990C46FBF7A5
:104E400029FAFBF7B1FA01900298FBF79FFA214685
:104E5000FBF720FAFBF7A8FA02900398FBF796FA03
:104E60002146FBF717FAFBF79FFA039001A8FEF71C
:104E700001FD08A8FFF770FA0020ADF820000590AA
:104E80000690079005A8FEF757FC0020CDE700002C
:104E9000F8B5144C0146224694F82460D2E9000289
:104EA00000235D1E56B179B1022111E0C17B10785B
:104EB0006B460122FDF7FFFB68B90EE0A67A56B1FA
:104EC00011B1617C61B902E08DF80030EEE701219B
:104ED0008DF80010EAE72846F8BD9DF800006074E0
:104EE0000020F8BD3C000020010202030405060773
:104EF00008090A0B0C0D0E0F101000000000000036
:104F00000000010203040607080900000000010276
:104F1000030475191A0C6A231B1C1F207274433B6F
:104F20004138393A6B6C376F06246D6E700068003B
:104F3000000476005401F7FD00010000830000002A
:104F400000080000000100183200050000002041A8
:104F50000000D242295C0F3E9A99993E3333733F49
:104F6000295C0F3E000070000000002400000002D9
:104F70000003000000650054FFEF0000FA80000B02
:104F800012820001030C30C30E8C8CE914D5400250
:104F900013710F8E3883F8833000F883258EF883E1
:104FA0003000F883FFFFFFFF0FFEA9D624000400A6
:104FB0001A8279A10000003CFFFF000000100000F1
:104FC00038836FA2003E03304000000002CAE309AC
:104FD0003E800000200000000000000040000000B3
:104FE00060000000000C0000000C186E000006922B
:104FF0000A16C0DFFFFF0256FD8CD377FFE1C4968F
:10500000E0C5BEAA00000000FFFF0B2B00001657F2
:10501000000003594000000000001DFA00026C1D52
:10502000000000003FFFDFEB003EB3B6000D22782A
:1050300000002F3C00000000001942B5000039A21A
:105040000000B365D90E9FC91DCF4C34300000005D
:10505000500000003BB67AE80064000000C8000081
:1050600000000000100000001000FA921000225E04
:10507000000D229F0001000000320000FF460000EA
:1050800063D400001000000004D6000004CC00002F
:1050900004CC00000000107200000040000000007E
:1050A00000000000000600020005000700000000EC
:1050B000006400000000000000000005000500641E
:1050C0000020000000000000000000000000400080
:1050D0000000030000000032F8980000FF650000A7
:1050E000830F0000FF9BFC00000000000000000098
:1050F00000000000000000000000000000000000B0
:10510000000000000000000000000000000000009F
:105110000000100040000000000000060000B26A1D
:10512000000200000001FB830068000000D9FC00C1
:105130007CF1FF830000000000650000006403E8CC
:1051400000640028000000250000000016A00000F8
:105150000000100000001000002F0000000001F40B
:105160000000100000280000FFFF4581FFFFFA72D9
:105170000000000000000000004400050005BAC661
:10518000004778A2000000010000000000000600B7
:10519000000000140000254D002F706D000005AECA
:1051A000000C02D000000000000000000000000021
:1051B00000000000001B00000000000000000000D4
:1051C0000000000000640000000800000000000073
:1051D00000000000000000000000000000000000CF
:1051E00000000000000000000000000000000000BF
:1051F00000000000000000000000000000000000AF
:10520000000000000000000000000000000000009E
:10521000000000000000000000000000000000008E
:1052200000000000001B0000000000000000000063
:10523000000E000E00000AC700040000000000324B
:10524000FFFFFF9C00000B2B00000002000000018C
:1052500000000064FFE50000000000000000000006
:10526000000000000000000100000000000100003C
:1052700000000000000180000001800000018000AB
:10528000002426D3000000000000000000060010EB
:105290000096003C0000000000000000000000003C
:1052A000000000000C0A4E68CDCF770950166759F0
:1052B000C619CE82000000000000000000000000BF
:1052C00000000000000000000000000017D784006C
:1052D000030000000000000000000000C7938F9D45
:1052E0001E1B1C1900000000000000000000000050
:1052F000000000000000000000000000020318850C
:105300000000400000000003000000030000000057
:10531000000000004000000000000000000000004D
:10532000000000000000000000000000000000007D
:10533000000000000000000000000000000000006D
:105340000000000000000000677DDF7E72902E5597
:105350004CF6E6880000000000000000000000009D
:1053600000000000D8DCB4B8B0D8B9ABF3F8FAB399
:10537000B7BB8E9EAEF132F51BF1B4B8B08097F199
:10538000A9DFDFDFAADFDFDFF2AAC5CDC7A90CC91D
:105390002C97F1A989264666B28999A92D557DB029
:1053A000B08AA896365676F1BAA3B4B280C0B8A82F
:1053B0009711B28398BAA3F0240844106418B2B9C4
:1053C000B49883F1A329557DBAB5B1A38393F000B6
:1053D0002850F5B2B6AA839328547CF1B9A38293DE
:1053E00061BAA2DADEDFDB819AB9AEF5606870F1EE
:1053F000DABAA2DFD9BAA2FAB9A38292DB31BAA291
:10540000D9BAA2F8DF85A4D0C1BBAD83C2C5C7B8E5
:10541000A2DFDFDFBAA0DFDFDFD8D8F1B8AAB38D13
:10542000B4980D355DB2B6BAAF8C96198F9FA70EA2
:10543000161EB49AB8AA872C547CBAA4B08AB69126
:10544000325676B28494A4C808CDD8B8B4B0F199D5
:1054500082A82D557D98A80E161EA22C547C92A4CD
:10546000F02C5078F184A898C4CDFCD80DDBA8FCB2
:105470002DF3D9BAA6F8DABAA6DED8BAB2B68696AD
:10548000A6D0F3C841DAA6C8F8D8B0B4B882A892BA
:10549000F52C548898F135D9F418D8F1A2D0F8F940
:1054A000A884D9C7DFF8F883C5DADF69DF83C1D8FC
:1054B000F40114F1A8824EA884F311D182F5D99297
:1054C000289788F109F41C1CD884A8F3C0F9D1D915
:1054D0009782F129F40DD8F3F9F9D1D982F4C203F6
:1054E000D8DEDF1AD8F1A2FAF9A88498D9C7DFF874
:1054F000F8F883C7DADF69DFF883C3D8F40114F161
:1055000098A8822EA884F311D182F5D99250978859
:10551000F109F41CD884A8F3C0F8F9D1D99782F125
:1055200049F40DD8F3F9F9D1D982F4C403D8DEDFF8
:10553000D8F1AD8898CCA809F9D98292A8F57CF168
:10554000883ACF944A6E98DB6931DAADF2DEF9D849
:105550008795A8F221D1DAA5F9F417D9F1AE8ED04A
:10556000C0C3AE82C684C3A88595C8A588F2C0F121
:10557000F4010EF18E9EA8C63E56F554F18872F4E1
:105580000115F19845856EF58E9E0488F142985A72
:105590008E9E068869F4011CF1981E1108D0F5044E
:1055A000F11E970202983625DBF9D985A5F3C1DAF9
:1055B00085A5F3DFD88595A8F309DAA5FAD88292F4
:1055C000A8F578F1881A849F26889821DAF41DF3CB
:1055D000D8879F39D1AFD9DFDFFBF9F40CF3D8FAC4
:1055E000D0F8DAF9F9D0DFD9F9D8F40BD8F3879FDE
:1055F00039D1AFD9DFDFF41DF3D8FAFCA869F9F986
:10560000AFD0DADEFAD9F88F9FA8F1CCF398DB455A
:10561000D9AFDFD0F8D8F18F9FA8CAF38809DAAFE5
:105620008FCBF8D8F2AD978D0CD9A5DFF9BAA6F3D8
:10563000FAF412F2D8950DD1D9BAA6F3FADAA5F296
:10564000C1BAA6F3DFD8F1BAB2B68696A6D0CAF32D
:1056500049DAA6CBF8D8B0B4B8D8AD84F2C0DFF13F
:105660008FCBC3A8B2B68696C8C1CBC3F3B0B488FB
:1056700098A821DB718D9D71859521D9ADF2FAD85D
:105680008597A828D9F408D8F28D29DAF405D9F23B
:1056900085A4C2F2D8A88D9401D1D9F411F2D8878B
:1056A00021D8F40AD8F28498A8C801D1D9F411D825
:1056B000F3A4C8BBAFD0F2DEF8F8F8F8F8F8F8F8C1
:1056C000D8F1B8F6B5B9B08A95A3DE3CA3D9F8D81D
:1056D0005CA3D9F8D87CA3D9F8D8F8F9D1A5D9DF3B
:1056E000DAFAD8B18530F7D9DED8F830ADDADED8BD
:1056F000F2B48C99A32D557DA083DFDFDFB591A097
:10570000F629D9FBD8A0FC29D9FAD8A0D051D9F8CC
:10571000D8FC51D9F9D879D9FBD8A0D0FC79D9FADD
:10572000D8A1F9F9F9F9F9A0DADFDFDFD8A1F8F8A3
:10573000F8F8F8ACDEF8ADDE8393AC2C547CF1A81D
:10574000DFDFDFF69D2CDAA0DFD9FADB2DF8D8A851
:1057500050DAA0D0DED9D0F8F8F8DB55F8D8A87820
:10576000DAA0D0DFD9D0FAF8F8F8F8DB7DF8D89CC9
:10577000A88CF530DB38D9D0DEDFA0D0DEDFD8A8AA
:1057800048DB58D9DFD0DEA0DFD0DED8A868DB70D8
:10579000D9DFDFA0DFDFD8F1A888902C547C98A84F
:1057A000D05C38D1DAF2AE8CDFF9D8B087A8C1C1AD
:1057B000B188A8C6F9F9DA36D8A8F9DA36D8A8F93E
:1057C000DA36D8A8F9DA36D8A8F9DA36D8F78D9DBE
:1057D000ADF818DAF2AEDFD8F7ADFA30D9A4DEF9B9
:1057E000D8F2AEDEFAF983A7D9C3C5C7F1889BA763
:1057F0007AADF7DEDFA4F8849408A797F300AEF241
:105800009819A488C6A39488F632DFF28393DB0943
:10581000D9F2AADFD8D8AEF8F9D1DAF3A4DEA7F12D
:10582000889B7AD8F38494AE19F9DAAAF1DFD8A864
:1058300081C0C3C5C7A39283F628ADDED9F8D8A32B
:1058400050ADD9F8D8A378ADD9F8D8F8F9D1A1DA04
:10585000DEC3C5C7D8A18194F818F2B089ACC3C51E
:10586000C7F1D8B8B4B09786A8319B069907AB9713
:1058700028889BF00C201440B0B4B8F0A88A9A286D
:105880005078B79BA82951792470594469386448E5
:1058900031F1BBAB88002C547CF0B38BB8A8042842
:1058A0005078F1B088B49726A85998BBABB38B0257
:1058B000264666B0B8F08A9CA82951798B2951797F
:1058C0008A2470598B2058718A4469388B39406812
:1058D0008A6448318B30496088F1AC002C547CF0EC
:1058E0008CA804285078F1889726A85998AC8C0287
:1058F000264666F0899CA829517924705944693854
:10590000644831A98809205970AB11384069A81939
:105910003148608CA83C415C207C00F18798198656
:10592000A86E767EA999882D557DD8B1B5B9A3DF2B
:10593000DFDFAED0DFAAD0DEF2ABF8F9D9B087C492
:10594000AAF1DFDFBBAFDFDFB9D8B1F1A3978E607B
:10595000DFB084F2C8F8F9D9DED89385F14AB18373
:10596000A308B5839A0810B79F10D8F1B0BAAEB0AB
:105970008AC2B2B68E9EF1FBD9F41DD8F9D90CF1CA
:10598000D8F8F8AD61D9AEFBD8F40CF1D8F8F8AD81
:1059900019D9AEFBDFD8F416F1D8F8AD8D61D9F482
:1059A000F4ACF59C9C8DDF2BBAB6AEFAF8F40BD8AC
:1059B000F1AED0F8AD51DAAEFAF8F1D8B9B1B6A37C
:1059C000839C08B9B1839AB5AAC0FD3083B79F10F4
:1059D000B58B93F20202D1ABDADED8F1B080BAAB6C
:1059E000C0C3B284C1C3D8B1B9F38BA391B609B413
:1059F000D9ABDEB0879CB9A3DDF1B38B8B8B8B8BDE
:105A0000B087A3A3A3A3B28BB69BF2A3A3A3A3A324
:105A1000A3A3A3A3A3F1B087B59AA3F39BA3A3DC8D
:105A2000BAACDFB9A3A3A3A3A3A3A3A3A3A3A3A3D4
:105A3000A3A3A3A3D8D8D8BBB3B7F1AAF9DAFFD9E7
:105A4000809AAA28B48098A720B79787A86688F07C
:105A50007951F1902C870CA781976293F071716056
:105A600085940129517990A5F1284C6C870C9518E3
:105A70008578A38390284C6C886CD8F3A28200F2BE
:105A800010A8921980A2F2D926D8F188A84DD94839
:105A9000D896A83980D93CD89580A839A68698D9B7
:105AA0002CDA87A72CD8A8899519A980D938D8A825
:105AB0008939A980DA3CD8A82EA83990D90CD8A861
:105AC000953198D90CD8A809D9FFD801DAFFD89513
:105AD00039A9DA26FFD890A80D8999A810809821B5
