:020000040800F2
:1000000018080020D5000008CD3300086F2C000828
:1000100000000000000000000000000000000000E0
:10002000000000000000000000000000793B000814
:100030000000000000000000CF3300087B3B0008F8
:10004000E7000008E7000008E7000008E7000008F4
:10005000E7000008BB0F0008E7000008E700000801
:10006000E7000008550D0008650D0008E7000008CE
:10007000E7000008E7000008E7000008193C000856
:10008000E7000008E7000008E700000800000000A3
:10009000E7000008E7000008E7000008E7000008A4
:1000A000E7000008E7000008E7000008194400081E
:1000B000E7000008E700000800000000E700000873
:1000C0000348854600F01CFD00480047F166000823
:1000D000180800200448804704480047FEE7FEE770
:1000E000FEE7FEE7FEE7FEE7153C0008C10000085A
:1000F00030B50B46014600202022012409E00D46C0
:10010000D5409D4205D31D469540491B2546954047
:1001100040191546521E002DF1DC30BD70B500248B
:100120002546002801DA01244042002901DA012590
:100130004942FFF7DDFFAC4200D04042002C00D026
:10014000494270BDF0B51FB40646002082B0054696
:100150004024019100901BE0019922460F46304651
:1001600000F0D5FB049A059B801A994110D31046E4
:100170001946224600F0BBFB361A8F4101972246F2
:1001800001200021009F00F0B2FB38184D41009083
:100190002046641E0028DFDC019B00982946324679
:1001A00007B0F0BDF8B500242546002904DA0E4654
:1001B000012400214042B141002B04DA1E460023F5
:1001C00052420125B341FFF7BDFF8C4617461E463C
:1001D000AC4203D0002540428D41AC46002C02D0F9
:1001E000002657429E4161463A46334601B0F0BD73
:1001F000F0B51FB486B000200090019002900698E0
:10020000069980B204900798090C02040014114367
:1002100007900027089D099806913E463C460390AA
:100220000398A9B20204000C039004982D0C154306
:1002300048430021224600F05AFBC719714110348F
:100240000E46402CECDB3846029A00F050FB009A38
:10025000019B801800905941029801911030029042
:100260004028CCDB00980BB0F0BDD2B201E00270A8
:10027000401C491EFBD270470022F6E710B513461A
:100280000A4604461946FFF7F0FF204610BD30B578
:1002900004460020034600E05B1C934203D2E05C6E
:1002A000CD5C401BF8D030BD0321001D401E0378FB
:1002B00012021A43491EF9D510467047F8B5024696
:1002C0004A40D40F42004B0052085B089A4202D2C7
:1002D0000246084611464A0023D0C30D4A00DDB24B
:1002E000120EAD1A202D35DA49020126490AF6050B
:1002F0008A19002C00D0524220214F1B1146B940D0
:100300002A411018C20D9A4221D0002C17D0012D7D
:1003100008DCDA05801AD20F8019D207DBB200F0B0
:1003200022FBF8BDDA05801A012340001B06C01825
:1003300080185A428018CA0F1043490007E0490844
:10034000C2071143DA05801A80194008801800F0AE
:1003500002FBF8BD61000122511A001BF7E70122E0
:10036000D2075140AAE70122D2075040A6E7024631
:1003700070B54A40D30FDB0740002DD04A002AD089
:10038000010E140E000212020919400A520A8418C2
:10039000E50104465443000A120A2E045043A419EE
:1003A0004219200CC543AA18120C0125AD03521C9A
:1003B000521912047F39240400D0521C104301D476
:1003C0004000491EC2B20C06C0092018401C40085B
:1003D000802A02D003E0002070BD400840000029C0
:1003E00000DA0020184370BD70B502464A40D50FB0
:1003F00040004A00ED0740085208002814D0002AA7
:1004000012D0C40DD30D41020120C0055202490A89
:10041000520AE41A091812187D34914201D3641C5F
:1004200000E04900002C01DA002070BD0023914259
:1004300001D3891A0343400849000028F7D1002955
:100440000AD0914202D10121C90705E0914201D2AF
:10045000012101E00121C943E005C018401900F065
:100460007AFA70BD420005D04200120E52428A4212
:1004700001DB00207047C90508187047F0B5074632
:100480000846584087B0C00F049048000E465900F7
:1004900040084908BC1A884105D2384631461E46F4
:1004A00017460B4602465800400810434CD0300D0A
:1004B000039040055900400D490D0590401A0290E7
:1004C000402872DA18030121000B09050843019046
:1004D00004980092002805D00199524200208841DA
:1004E00000920190029840210A1A0199009800F0A8
:1004F000FEF905460C466B4607CB00F019FAC01909
:100500007141039A0E0D0023D71756401A467A40C0
:10051000164344D0049A002A2DD0029A012A039A45
:1005200015DC1205C01A914101263605001C7141E7
:10053000D20F059ED2070093019202962A462346C7
:1005400000F057FA07B0F0BD38463146FAE7160515
:10055000224A0F46B218C01AB74101210905001CF2
:100560004F4100187F41114618187941E20F10439E
:100570006D19644113E0E2076D0815436408C20772
:100580001443039A01261205C01A91413605001C36
:100590007141CE07400830434908C01851412A46EE
:1005A000234600F019FACDE7FFE704980122400046
:1005B000C117121A00238B4104983146C417381A08
:1005C000A141EEE730B40124E407634030BC55E7B5
:1005D00030B40124E407614030BC4FE70000E0FF85
:1005E000F0B51FB488B00B990998002448400999C8
:1005F000C00F490049080991C0070B9900904900B4
:1006000049080B9109990898A64608431CD00B99F4
:100610000A98084318D0099801244000420D480068
:10062000410D099824050003000B204309900B9805
:100630000003000B20430B9050181C494018002267
:1006400001901446104605E0002001460DB0F0BDB3
:10065000032801DA034600E003239C46C11A0AAED0
:100660000AE05F0008ADED5B4F00F75B7D430027BC
:10067000AA187C41491C5B1E6145F2DD410004ABB8
:100680005A522104120C0A43240C401C0828DFDBB8
:10069000019802900099704601910090059B049A80
:1006A0000799069800F0A5F9D0E700000DFCFFFFC0
:1006B000F0B50C465C4085B0E40FE40703944C00B1
:1006C00000266408590094464908024602962243CF
:1006D00021D062460A431ED06200570D4A000E0325
:1006E0002303550D012402462C492405781B1B0BBE
:1006F000360B401823432643614600901C46501A8F
:10070000B44103D30098401C009002E09218009876
:100710005B41002803DA0020014605B0F0BD00204F
:10072000012109050746864611E064461D46141B53
:10073000B54106D36546521BB341744607430C438B
:10074000A646CD0740084908284392185B41054654
:100750000D43EAD11046184313D060461946504065
:100760007140084306D06046101AB34106D20122F8
:10077000002306E000220123DB0702E00122D2432E
:100780005310009874460105381C6141029C039D7A
:100790000019694100F020F9BFE70000FD030000E7
:1007A00070B54B005B0803430BD04B005C0D00267B
:1007B00033466542B341D417AD1AA34102DB002092
:1007C000014670BD12053018514170BDC217C10FEE
:1007D000504010B54018CA079623002100F0C3F816
:1007E00010BD10B500229623114600F0BCF810BDD4
:1007F0000EB5C217C10F5040CA0740180021054B63
:100800000293019200910A460B4600F0F2F803B001
:1008100000BD0000330400000EB50549029100211F
:1008200000910A460B46019100F0E3F803B000BDC9
:1008300033040000C20F410040020123400ADB05DF
:10084000D207090EC0187F2901DA002070479629C7
:1008500003DC9623591AC84001E096398840002AE3
:10086000F4D040427047410040020122400AD205C4
:10087000090E80187F2901DA00207047962903DCD1
:100880009622511AC8407047963988407047C20F67
:10089000D207400040080BD0C10D0723DB01C91867
:1008A00040020905400A1143C2084007114370473E
:1008B000002001467047CB0FDB07490010B54908FF
:1008C00002460A4307D00A0D07240903E401090B75
:1008D000121B002A01DC002010BDC900440F0C438C
:1008E000C100E018D205801800F035F810BD10B531
:1008F000202A04DB0146203A9140002010BD91409F
:1009000020239C1A0346E3401943904010BD10B5C4
:10091000202A04DB0846203AD040002110BD0B46B7
:10092000D340D0402024A21A91400843194610BD5C
:1009300010B5202A06DBCB170846203A1041C11714
:100940000B4306E00B461341D0402024A21A9140ED
:100950000843194610BD002904DA401C490001D1A2
:1009600040084000704770B40024050C05D11024E5
:10097000000402D1002921D01124050E01D100026A
:100980000834050F01D10001241D850F01D180001D
:10099000A41C002801DB4000641C002908D020258D
:1009A0002E1B0D46F540A14000D0012129430843EC
:1009B00001061B1B000ADB1D02D5002070BC70471E
:1009C000DB05181880180029F8DA401C4900F5D119
:1009D00070BC40084000704710B5002B08DA0024B6
:1009E000401C614192185B411A4301D1400840000C
:1009F00010BDF0B51FB482B005460C0003D0084608
:100A000003F096FE02E003F093FE203002460090D1
:100A100021462846FFF76BFF049B059A04460F46C4
:100A200018431143084314D0184610431BD00098B4
:100A300040210A1A18460599FFF769FF05460E4638
:100A4000009A05990498FFF752FF084305D001204A
:100A500004E02046394607B0F0BD0020C117054329
:100A60000E432C43374300990E986305401A7905CD
:100A7000E40A00220C43FD0A0A3002D50020014698
:100A8000E9E70105101969410C9C0D9D00196941A8
:100A9000FFF7A2FFDFE700004A0009030123090B6B
:100AA0001B0519430A4B10B5520D9A4202DA002079
:100AB000014610BD064B34339A4203DC9A1AFFF705
:100AC00026FF10BD034BD218FFF711FF10BD000029
:100AD000FF030000CDFBFFFF10B5002904DB01245C
:100AE000E40740428C412146002B04DB1C460123D5
:100AF000DB075242A341994200D1904210BD000051
:100B0000064C0125064E05E0E36807CC2B430C3C60
:100B100098471034B442F7D3FFF7D6FA008500089F
:100B200020850008FEB500231A461B1A8A4103DB04
:100B30000020014603B0F0BD4A000D0301212D0B3A
:100B40000905520D0D43D10702D100186D41521E07
:100B50005110FF31FF310131002704463E4638462F
:100B6000009701910246012100200905FFF7CFFE01
:100B7000C3197141F818324684468E464A4161468F
:100B80002846611A904104D36046241A954176465E
:100B90001F46241900986D41401C00903428E1DD67
:100BA000F91930467041091BA84103D20022D243F3
:100BB000134601E00022134601980105381C7141DB
:100BC000FFF70AFFB6E710B50146806A426D502371
:100BD0001A420AD1416D0122520211434165016856
:100BE000CA681205920F05D021E0C06C426B08461E
:100BF000904710BD2022125C002A18D10A68120703
:100C000015D58A6853070122002B09DB4B680C2499
:100C1000A3434B60416D130299431143416506E0C4
:100C2000416D202319434165816D1143816500F0B9
:100C300015FA10BD10B5806A416D4022114341651F
:100C4000816D04221143816500F00AFA10BD10B5D0
:100C5000806A00F004FA10BD38B50446064805491C
:100C60000068FFF745FA604300E0401E009000284E
:100C7000FBD138BD40420F00B8000020F8B5044653
:100C8000006881688907890F012902D10168C907B5
:100C900027D18168144A102611400125002913D15B
:100CA0008168294381600120FFF7D6FF00F07CFDB9
:100CB000074611E000F078FDC01B0A280CD9206817
:100CC0000068C043C00707D0606D30436065A06D09
:100CD0002843A0650120F8BD20680068C043C00714
:100CE000E8D10020F8BD000017000080F8B51648D4
:100CF00016490068164A086016680C46083C4E60A3
:100D000005462168FFF72BFB4000FF274008BF0581
:100D1000B8420FDA30466168FFF721FB4000400817
:100D2000B84207DA204601212C38017140790128A8
:100D300009D006E00548002134384171017160C4D2
:100D4000083C60C40020F8BD800000206C0000203A
:100D50008400002010B5024800F046FB10BD0000E2
:100D60005802002010B5024800F03EFB10BD000004
:100D7000BC03002030B5446C1C252C400125A54047
:100D8000046C6560046863608368102B036803D09B
:100D900099600068C26030BD9A600068C16030BD73
:100DA00000B50A4887B0C26A02210A43C262C06A1B
:100DB00008400590402000900020019002900520FE
:100DC0006946000700F006FC07B000BD00100240B5
:100DD00030B50E4887B0C16A02242143C162C06A9F
:100DE000052520402D07059000224021284600F0CF
:100DF000D4FC402000900120019000200290694620
:100E00000394284600F0E6FB07B030BD0010024016
:100E100010B500F08BF81A480A2301780A240A0951
:100E200009075A43090F5218014608318A7142785E
:100E3000130912076343120F9A184A718278130933
:100E400012076343120F9A180A71C2781309120726
:100E50006343120F9A18CA70027913091207634389
:100E6000120F9A188A704279CA71807902090007B4
:100E70006243000F10187D2212018018088010BDF7
:100E800026000020F8B50025052706463F072C461A
:100E90002A468021384600F080FC00222021384676
:100EA00000F07BFC032004F0EBFC0122802138469B
:100EB00000F073FC032004F0E3FC304600F058F827
:100EC000FFF76EFF032004F0DBFC3E468027032083
:100ED00004F0D6FC640801222021304600F05DFCBD
:100EE000052004F0CDFC00222021304600F055FC06
:100EF0001E2004F0C5FC4021304600F049FC0028CB
:100F000000D03C436D1CEDB2082DE0D3022004F06C
:100F1000B7FC00228021304600F03FFC0022402137
:100F2000304600F03AFC2046F8BD000010B58120A4
:100F3000FFF7A8FF0D4C20708320FFF7A3FF607020
:100F40008520FFF79FFFA0708720FFF79BFFE070D1
:100F50008920FFF797FF20718B20FFF793FF6071C7
:100F60008D20FFF78FFFA07110BD0000260000202C
:100F700070B5052605460024360722462021304656
:100F800000F00BFCFFF724FF00222021304600F088
:100F900004FCE80701D0012200E000224021304695
:100FA00000F0FBFB01222021304600F0F6FB641C20
:100FB0006D08E4B2082CE7D370BD10B5012000F035
:100FC000FDFA10BD72B6FEE7F8B506460D4640368E
:100FD000317C01290DD00121317401688A685207E2
:100FE00009D5416D20221143416500203074012054
:100FF000F8BD0220F8BD174B6A68D80547109A4221
:10100000154C8A6A2B6812D05B035B0B1A438A6209
:101010002968490305D5A1680143A1600A20FFF7AB
:101020001BFE2868800312D5A06838430EE05B03DE
:101030005B0B9A438A622968490302D5A168814300
:10104000A1602868800302D5A068B843A060002092
:101050003074F8BD01100000002701407047704750
:101060007047000070B5040006D0606D264600256C
:101070004036002802D006E0012070BDA565357419
:10108000204600F0D3F8606DC00603D4216888685C
:10109000400705D5606D1021084360653574EBE7A6
:1010A000606DFF2201329043022210436065886820
:1010B0008207920F5B48012A02D10A68D2072BD11E
:1010C000032362689B079A4205D05B429A4202D092
:1010D0005B009A4209D10A69920092080A6121686C
:1010E0000A6963681A430A610CE00A69920092086F
:1010F0000A6181680F22920491438160816862686D
:10110000114381602168CA6818239A43CA60216824
:10111000CA68A3681A43CA608168012252069143D3
:1011200081608168A28E52061143816020688168C7
:10113000C90004D48168012212071143816020682C
:10114000C168394A1140C1602069E168022825D090
:1011500000200143204620300278037B52035B00CD
:101160001A431143226B1143A26992031143E269AE
:10117000D20311432268D3681943D160616A0A46D9
:10118000FF3AC23A05D0A26A11432268D3681943D4
:10119000D16042780121012A02D00BE00420D8E777
:1011A0000078002823D0606D202210436065A06D78
:1011B0000843A065E06B012820681FD00169C907BA
:1011C00003D0016949084900016120684169C908E3
:1011D000C900416120684169A26B11434161A56565
:1011E000606D80088000401C6065002070BD206834
:1011F000C26801231B041A43C260DBE70269FF23B4
:101200009B009A43026120680269236CA66C1A4312
:10121000636C33431A430261206802690A43026126
:10122000D3E70000002701401902FEFF70B586B029
:10123000054614216846FFF71FF81A4928688842B6
:101240002ED11949486B4A1510434863CA6A0220D7
:101250000243CA62C96A002601400591012000903C
:101260000320019069460296104800F0B3F9104837
:10127000104C41C4266080206660A0604000E060A1
:1012800080002061202060610002A0610948083CC4
:1012900000F0FEF8002801D0FFF794FEEC64A56290
:1012A00006B070BD00240140001002400004005050
:1012B0000800024058020020F7B5044600681746AF
:1012C0008168002549073CD426464036317C0129F7
:1012D0000DD001213174C2680A43C260E06901285F
:1012E00007D02046FFF7CAFC050002D02AE0022002
:1012F000FEBD606D14490840FF210131084360655F
:101300000020A0653074E16C1048C862E16C1048A0
:101310000863E16C0F48486321681C20086020685E
:10132000416810221143416021683B46E06C403126
:10133000019A00F0F5F82068816804221143816069
:1013400000E002252846FEBDFEF1FFFFC70B0008A6
:101350004F0C0008350C000830B5014620314A79A1
:101360000023022A04D00422C2630B71012030BD85
:10137000026814680E25AC4314600268146864089F
:1013800064001460446C1C22144001221546006C59
:10139000A54045604A7118460B7130BD70B50024F8
:1013A000014620314A79022A03D00421C163012475
:1013B00018E0026813680E25AB43136002681368D7
:1013C0005B085B001360436C1C221340012215462E
:1013D0009D40036C5D604A7100220A71816B002997
:1013E00000D08847204670BDF0B4016C0D680168DC
:1013F0000C68466C1C2304221E401746B7402F423F
:101400000ED067070CD50C68A40602D40C68944370
:101410000C60416C19408A40016C4A60016B1AE013
:101420000227B74002462F402032002F17D0A707CF
:1014300015D50C68A40605D40C680A25AC430C60CD
:1014400001215171446C02211C40036CA140596080
:1014500000211171C16A002918D0F0BC0847082783
:10146000B7402F4212D0240710D50C680E25AC438C
:101470000C60446C01211C400B46A340046C63606B
:10148000C163517100211171416BE4E7F0BC7047F9
:1014900070B504003CD01F48256814212818FEF7B9
:1014A00027FE800060641C48206402212046203012
:1014B0000246417129681948E3680140A0686669DD
:1014C0001843236933431843A3691843E369184356
:1014D000236A1843084328600121A06889038842D1
:1014E00010D00D488030836A656C1C210D400F269A
:1014F000AE40B3438362656C63680D40816AAB4064
:101500000B4383620020E06301215171107170BDB3
:10151000012070BDF8FFFDBF000002400F80FFFFFB
:10152000F8B504468C46203001790025012909D000
:101530000126067141790027012905D0077102258E
:101540002846F8BD0220F8BD02214171E7632068FA
:10155000016849084900016061462046FFF70AFC1E
:10156000206B00282068016801D00E2205E00422CB
:1015700091430160206801680A22114301602068DC
:10158000016831430160DBE770B5044600F00CF9F7
:101590000546601C02D004480078241800F004F9C5
:1015A000401BA042FAD370BDAC000020012801D13D
:1015B00001498870704700007600002010B504498A
:1015C0004A69024202D04861FFF7F0FF10BD0000F7
:1015D00000040140F8B5002303240125C2E032468F
:1015E0002E469E40B446324079D00E79B607B60FEB
:1015F000012E01D0022E17D186682746B6465E001E
:10160000B74000967646BE43B646CF68009EB740C8
:1016100076463743876046686746BE430F79FF06C4
:10162000FF0F9F40374347600E79F643B6070ED051
:10163000C6682746B4465E00B646B7406646BE4317
:10164000B4468F687646B74066463743C7600E7922
:10165000B607B60F022E14D1DE08B6003618009673
:10166000366A5F07B446FE0E0F27B646B740664699
:10167000BE43B4460F697646B74066463743009E80
:10168000376206682746B4465E00B646B7406646EF
:10169000BE430F79B446BF07BF0F7646B7406646D4
:1016A000374307604E68B603B60F5AD0304F7E6B93
:1016B0002E437E639F082F4EBF00BE190096B6686A
:1016C0000F27B4469E07360FB646B7406646BE4360
:1016D00005273F07B446B84202D100271AE040E090
:1016E000254FB84201D1012714E0244FB84201D15F
:1016F00002270FE0224FB84201D103270AE0214F11
:10170000B84201D1042705E01F4FB84201D1052797
:1017100000E006277646B74066463743009EB7602E
:101720001A4EB6684F689643FF0200D51643174F0E
:10173000BE60FE684F689643BF0200D51643134F44
:10174000FE607E684F689643BF0300D516430F4F77
:101750007E603E684F689643FF0300D516430B4AF0
:1017600016605B1C0A681646DA4000D037E7F8BD01
:10177000001002400000014000040050000800502A
:10178000000C005000100050001C005000040140EC
:101790000069084000D001207047002A01D0816113
:1017A0007047816270470000014880687047000000
:1017B000AC00002070B5024640325378202B1CD17B
:1017C0001378012B19D0012313702424547004685A
:1017D00025689D432560046825681E03B543256080
:1017E000046825680D43256000680168194301609D
:1017F000202050700020107070BD022070BD70B5A8
:10180000024640325378202B1BD11378012B18D07D
:10181000012414702423537003681D68A5431D60C0
:1018200005682B680F263602B34309021943296065
:101830000068016821430160202050700020107072
:1018400070BD022070BD000070B5040006D02546B2
:10185000403568780026002802D005E0012070BDE0
:101860002E70204600F04AF8242068702068016835
:101870004908490001600F21606809068843216812
:10188000086121688A680120C00382438A60E16898
:101890000129A16808D02122920211432268916097
:1018A000E168022902D005E00143F7E7012122683F
:1018B000C902516021684A680F4B1A434A60216887
:1018C000CA688243CA60616920690843A169090244
:1018D00008432168C860216AE069084321680860FC
:1018E000206801680122114301606664202068704D
:1018F0002663AE70002070BD0080000210B586B077
:10190000044614216846FEF7B7FC10492068884257
:101910001AD10F4CE16A02200143E162E16A014001
:101920000591C02000901220019000200290032019
:1019300003900120049069460648FFF74BFEA06B18
:10194000012149050843A06306B010BD00540040C2
:101950000010024000040050024881680278891893
:1019600081607047AC00002010B508480024016871
:10197000402211430160032000F00AF8002801D042
:10198000012401E000F026F8204610BD00200240AE
:1019900070B504460D4D7D202978C000FEF7A8FBE8
:1019A00001460B480068FEF7A3FB00F0A9FC0028E5
:1019B00009D1042C07D200222146401E00F022F853
:1019C00000206C6070BD012070BD0000AC000020E4
:1019D000B80000200448416B012211434163816B30
:1019E000020411438163704700100240002805DBA8
:1019F000C106C90E012088400149086070470000F7
:101A000000E100E010B502F0FDFE10BDF0B5144A93
:101A10001368144D54152D6A2340ED07ED0F002B6C
:101A200004D0002D02D01668A64316601668B608CA
:101A3000B600064316600C4806690427BE430661DB
:101A400001290BD040BF20BF20BF002B04D0002DA8
:101A500002D010682043106000BFF0BD30BFF4E733
:101A6000007000400000014000ED00E0F8B50446C1
:101A7000007800275E4D800674D55D4E403EB06B09
:101A8000C00004D4B06BA9050843B06301275948CE
:101A90000168C90511D40168821511430160FFF77F
:101AA00083FE009005E0FFF77FFE0099401A64284E
:101AB00037D850480068C005F5D5326803210905BC
:101AC00060680A400140914208D08103890F0329D0
:101AD00004D13168890301D50120F8BD2A690321A9
:101AE00009040A4022D0084090421FD02078800686
:101AF00031D528692A6988430121C9040A432A612A
:101B00002A698A432A612861C0050FD5FFF74CFE78
:101B1000009008E0FFF748FE0099411A36488142DC
:101B200001D90320F8BD28698005F3D52078800607
:101B300011D561688803800F032805D1326800053C
:101B4000824301400A43326028690322616812041B
:101B5000114008432861002F04D0B16B0120000719
:101B60008143B1632078C00705D0E868A168800888
:101B700080000843E8602078800705D5E8680C21DC
:101B80008843E1680843E8602078400706D5E868A4
:101B900003218902884321690843E860207800070F
:101BA00006D5E86803210903884361690843E860B2
:101BB0002088C00506D5E868032109048843A16987
:101BC0000843E8602078400606D5E86801218906C8
:101BD0008843216A0843E8602078000606D5E86853
:101BE000032189048843E1690843E8600020F8BDC7
:101BF000401002400070004088130000F8B50E4607
:101C0000050038D05E480068C007C00FB04214D24B
:101C10005B4C20684008400030432060FFF7C4FD63
:101C2000074605E0FFF7C0FDC11B564881427AD840
:101C30002068C007C00FB042F4D12878524C80070A
:101C400005D5E068F0218843A9680843E06028785A
:101C5000C00752D06868022806D0032807D0216840
:101C600001280AD0890504E02168890301E0216880
:101C70008901002903DB0120F8BD4907F9E7E16884
:101C8000890889000143E160FFF78EFD0746686817
:101C900002280AD0032814D001281ED029E0FFF71B
:101CA00083FDC11B374881423DD8E0680007800FA3
:101CB0000228F4D121E0FFF777FDC11B31488142B2
:101CC00031D8E0680007800F0328F4D115E0FFF752
:101CD0006BFDC11B2B48814225D8E0680007800FAF
:101CE0000128F4D109E0FFF75FFDC11B25488142BF
:101CF00019D8E0680007800FF5D121480168C907AD
:101D0000C90FB14217D90168490849003143016040
:101D1000FFF74AFD074608E005E0FFF745FDC11B58
:101D20001848814201D90320F8BD15480068C00752
:101D3000C00FB042F1D12878400706D5E0680721EE
:101D400009028843E9680843E0602878000707D55E
:101D5000E0680721C90288432969C9000843E06097
:101D600000F03AF8E168094A0906090F515CC840D9
:101D70000749086007480068FFF70AFEF8BD000041
:101D80000020024088130000001002404C77000839
:101D9000B8000020B0000020044805490068C96868
:101DA000044A4905490F515CC8407047B8000020FB
:101DB0000010024065770008044805490068C968BA
:101DC000044A8904490F515CC8407047B80000209C
:101DD000001002406577000870B51A4AD3681A49A6
:101DE0000C2018408D0004280CD04E00082810D07C
:101DF0000C2810D050680004410F0120C003491C7A
:101E0000884070BD1068C00601D5084670BD2846E0
:101E100070BD304670BD98020C4C000F205C1B0258
:101E20009C0FD368641CDB0301D5314603E01268C4
:101E3000D20600D4294602F0AAFC22460023FEF76F
:101E400081F970BD0010024000093D005C77000878
:101E5000FEB505007ED0F74CE7680C20E668074029
:101E60000120000406402878C00747D0082F05D07D
:101E70000C2F0AD101200004864206D1206880037D
:101E80003CD568680028E5D038E001206968000486
:101E9000814203D121680143216011E00523012221
:101EA0001B0492049942216802D111432160F1E799
:101EB00081432160216801400091206890432060A7
:101EC000686800280DD0FFF76FFC009005E0FFF771
:101ED0006BFC0099401A64287ED820688003F6D5F0
:101EE0000CE0FFF761FC009005E0FFF75DFC009956
:101EF000401A6428F0D820688003F6D42878800738
:101F00005DD5E868810604D5226820210A43226055
:101F100088430923042F0DD00C2F01D1002E09D0A6
:101F200000283CD02168994301432160FFF73CFC25
:101F3000064628E02168490701D500288AD0616853
:101F40001F22120291432A69120211436160216823
:101F5000994300E0C7E101432160FFF73DFFE168DD
:101F600009060A0FB449895CC840B4490860B448FE
:101F70000068FFF70DFD002874D120E0FFF714FC86
:101F8000801B0228A8D820684007F7D560681F2169
:101F90000902884329690902084360600FE020684C
:101FA000400840002060FFF7FFFB064604E0FFF713
:101FB000FBFB801B02288FD820684007F7D42878C5
:101FC000C00661D5002F0DD0E86900284BD02068ED
:101FD000FF210131084300E0EAE02060FFF7E4FB65
:101FE00006462DE02068800502D5E8690028A5D0C6
:101FF0006068072149038843696A08436060606834
:10200000298C0002000A090608436060686A410BD7
:102010000120C003491C8840E16809060A0F86496F
:10202000895CC8408549086085480068FFF7B0FCB6
:10203000002817D128E0FFF7B7FB801B0228A1D8A2
:1020400020688005F7D56068072149038843696ADD
:10205000084360606068298C0002000A0906084392
:10206000606011E025E12168FF200130814321609B
:10207000FFF79AFB064604E0FFF796FB801B022859
:1020800099D820688005F7D428786E4E000724D5AB
:1020900068690028306910D0012108433061FFF7DA
:1020A00083FB009005E0FFF77FFB0099401A0228B0
:1020B0007ED830698007F6D50FE0400840003061D7
:1020C000FFF772FB009005E0FFF76EFB0099401AE6
:1020D00002286DD830698007F6D42878400764D587
:1020E00000200290A06BC00006D4A06B012109075C
:1020F0000843A0630120029053480168C90511D428
:102100000168821511430160FFF74EFB009005E066
:10211000FFF74AFB0099401A642849D84A480068EA
:10212000C005F5D5FF20AA680130824203D131698C
:102130000143316111E001218902002A07D0052302
:102140001B029A4203D132690A433261EFE73269D6
:1021500082433261306988433061A86800280ED01C
:10216000FFF722FB009006E0FFF71EFB0099411AE3
:10217000364881421CD830698005F5D50DE0FFF75F
:1021800013FB009006E0FFF70FFB0099411A2F4860
:1021900081420DD830698005F5D40298002804D01A
:1021A000A16B012000078143A1632878800600E02D
:1021B0007EE02ED52648A9694314002916D0A268CE
:1021C00001210A43A260626B0A436263016A1943F8
:1021D0000162FFF7E9FA064604E0FFF7E5FA801B23
:1021E000022865D8A0688007F7D512E0A1684908E1
:1021F0004900A160016A99430162FFF7D5FA0646DA
:1022000004E0FFF7D1FA801B022851D8A0688007AC
:10221000F7D4A86A002868D00C2F4FD001263606C4
:102220000228206816D0B0432060FFF7BDFA0546AB
:1022300040E00000001002404C770008B800002089
:10224000B0000020401002400070004088130000E1
:1022500000000140B0432060FFF7A6FA074604E003
:10226000FFF7A2FAC01B022822D820688001F7D409
:10227000296BE86AE2680843696BFD231B049A43F3
:1022800011430843E060206830432060FFF78CFA78
:10229000054604E0FFF788FA401B022808D82068AA
:1022A0008001F7D521E0FFF77FFA401B022801D912
:1022B0000320FEBD20688001F5D416E00128F8D087
:1022C000E06801210904EA6A014091420BD10F2123
:1022D00089042A6B0140914205D1032189050840F8
:1022E000696B884201D00120FEBD0020FEBD0000C8
:1022F00002480169022211430161704700E000E0D9
:10230000094910B5401E884201D9012010BD074C73
:1023100060610321081F02F075FA0020A061072008
:102320002061002010BD0000FFFFFF0000E000E082
:1023300002480169022291430161704700E000E018
:10234000F0B502462032137E012B21D001251576EF
:102350000223537606687468B3687027BC430F681D
:10236000274377600068AC07A04208D0094CA04220
:1023700005D0094CA04202D0084CA04204D18024D0
:102380004968A34319438160557600201076F0BD5B
:102390000220F0BD0004004000080140001401408C
:1023A00070B5050005D02C462034607E002802D090
:1023B00006E0012070BD00202076284600F010F8CD
:1023C00002206076291D286801F02EFC0120A077EC
:1023D000A076E076207760776076002070BD000000
:1023E00010B500680121890788420CD10648816B2D
:1023F000012211438163002201210F20FFF702FB1C
:102400000F20FFF7F3FA10BD001002400146203103
:102410004A7E012A01D00120704702224A760268D2
:10242000D36801210B43D36000688A07904208D02B
:10243000094A904205D0094A904202D0084A904287
:1024400004D182685207520F062A02D002680A435A
:1024500002600020704700000004004000080140B6
:10246000001401400168CA6852085200CA6001683D
:102470000A6A064B1A4203D10A68520852000A60DF
:10248000012120304176002070470000111100002A
:10249000F8B5054604462035287E0026012817D0C9
:1024A0000120287602206876226890687727FF232B
:1024B000B8431B02984390600868502838D00EDC5F
:1024C00020284FD006DC00284CD010281ED149E02F
:1024D0000220F8BD302845D0402817D13AE06028C6
:1024E0002ED0702819D001221203801A0FD09042EA
:1024F0000CD1CB684A688968206801F0C9FB206864
:102500008168012292031143816000E001260120CD
:102510006876002028763046F8BDCB684A6889681E
:10252000206801F0B5FB2168886838438860EEE7D1
:10253000CA684968206801F0BEFB5021206806E0A7
:10254000CA684968206801F0C7FB6021206801F073
:10255000AAFBDCE7CA684968206801F0ACFB4021AF
:102560002068F4E7226801461046F0E7704770B52E
:102570000446006801690025C9438907002915DB65
:10258000C168C943890711D4E91E01610120207681
:10259000206880698007204602D0FFF7E7FF04E04B
:1025A00000F078F8204600F076F82576206801697A
:1025B000C943490717D4C168C943490713D4042143
:1025C000C943016102202076206880698005800F60
:1025D000204602D0FFF7CAFF04E000F05BF8204677
:1025E00000F059F8257620680169C943090716D417
:1025F000C168C943090712D40821C94301610420F5
:1026000020762068C0698007204602D0FFF7AEFF21
:1026100004E000F03FF8204600F03DF82576206801
:102620000169C943C90617D4C168C943C90613D48F
:102630001021C9430161082020762068C069800507
:10264000800F204602D0FFF791FF04E000F022F84F
:10265000204600F020F8257620680169C943C907A3
:1026600008D1C168C943C90704D1891E0161204648
:1026700000F012F820680169C943490609D4C1680D
:10268000C943490605D44021C9430161204600F0F1
:1026900035F870BD7047704730B51449884221D174
:1026A000134801250189491C8AB20281C188491C4D
:1026B0008CB20021C480642A10D10E4A01811278A4
:1026C000012A0AD10C4A1378012B07D003795B1C2D
:1026D000DBB20371012B06D915700171642C01D195
:1026E000C180057030BD1170F8E70000F4020020D1
:1026F000760000203C0000203D000020704770471D
:1027000070477047F8B502680446D069116893684D
:10271000A44D06462E4025468035002E71D0A24F8E
:10272000DE07F60F0F4037437ED0C70706D0CF0530
:1027300004D5012717626A683A436A60820708D5A0
:10274000DA0706D0276802223A626A6804273A4309
:102750006A60420708D5DA0706D0236804221A62A5
:102760006A6802231A436A60020709D520220A40D8
:10277000324305D0236808221A626B6813436B60EA
:10278000020509D54A0107D501222368D2021A623F
:102790006A6820231A436A606A68002A39D0800672
:1027A00006D5880604D5A16E002901D020468847A9
:1027B000686821688968490602D4282108422DD01A
:1027C000204601F06DFB21688868400622D5EFF3B2
:1027D0001080012282F310888A6840239A438A601D
:1027E00080F31088606F002814D070498163606F97
:1027F000FEF7D4FD00280CD0606F816B08E000E08C
:1028000012E0860610D58E060ED5A16EAFE02046EA
:102810008847F8BD2046FFF774FFF8BD2046FFF754
:1028200070FF00206860F8BD266E012E7DD1C606BF
:102830007BD5CE0679D51023136222689068264690
:1028400040064036002849DA616F08684068000495
:10285000000CE8D0378B8742E5D9708308680068A0
:10286000800634D4EFF31080012181F310881168C1
:102870001F01B943116080F31088EFF3108001212C
:1028800081F3108821688A68520852008A6080F3B8
:102890001088EFF31080012181F3108821688A6885
:1028A0004027BA438A6080F31088202028600020E7
:1028B0002066EFF31080012181F3108821680A68F7
:1028C0009A430A6080F31088606FFEF745FD02208E
:1028D0006066308B718B401A81B234E0308B718B23
:1028E000401A81B2708B00289DD000299BD0EFF355
:1028F0001080012686F310881668FF272137BE4313
:10290000166080F31088EFF31080012282F31088A4
:102910002268966876087600966080F310882020FA
:10292000286000202066A06600E010E0EFF3108031
:10293000012282F31088226815689D43156080F398
:102940001088022060662046FFF7D9FEF8BDC50258
:1029500008D55B0206D50120000510622046FFF76E
:10296000CFFEF8BD030606D50B0604D5E16E00299F
:1029700000D04CE7F8BD4006FCD54806FAD5204605
:10298000EFF31081012383F3108813684024A343DD
:10299000136081F310882021C1670021C16600F017
:1029A00065F9F8BD0F080000200100048D3E000805
:1029B00010B5040003D0E06F002802D007E001202A
:1029C00010BD002178200155204600F027F8242072
:1029D000E06720680168490849000160204601F06D
:1029E00067FB0128ECD0606A002802D0204601F085
:1029F00086F9206841680922D2029143416020682B
:102A000081682A2291438160206801680122114374
:102A10000160204601F0D8F910BD0000F0B587B084
:102A2000064614216846FDF727FC25493068884290
:102A300043D12449486B0122920310434863C86A7A
:102A400001221043C862C86A04241040059048154A
:102A5000009002200025032701AA0494A1C20520AA
:102A600069460007FEF7B6FD20020090122001AA79
:102A70000494A1C2052069460007FEF7ABFD134C84
:102A80001148A560E56081C4E56080202561A060F3
:102A90002020A56160610D48083CFEF7F9FC002884
:102AA00001D0FEF78FFA7467002211461B20A66240
:102AB000FEF7A8FF1B20FEF799FF07B0F0BD00004E
:102AC000003801400010024030000240BC030020EA
:102AD00070B580231B58202B01D0022070BD002927
:102AE0000BD0002A09D0012483682403A34206D115
:102AF0000369002B03D1CB0701D0012070BD002357
:102B000003660B4B04689C420ED063681B020BD516
:102B1000EFF31083012585F3108825680126B6069A
:102B20003543256083F3108801F0CCFB70BD0000B5
:102B30000048004070B51749884216D10122164955
:102B40001448FFF7C5FF1448134C0078641F302861
:102B50000CD031280CD00021382000F0B8FA6423C2
:102B600001220D490B4800F021F870BD01200FE053
:102B70000A4D2878012803D10021382000F0A7FA57
:102B80000749002008700749287008800649086036
:102B90006070E4E7340300207B000020390000204F
:102BA0003A0000207400002060000020FFB50446B9
:102BB000C06F83B017460D46202802D0022007B010
:102BC000F0BD002D0BD0002F09D00120A16800031B
:102BD000814206D12069002803D1E80701D00120F5
:102BE000EDE70021842001512120E067FEF7DCFDA4
:102BF000264640360190378277820120A168000383
:102C0000814202D12069002802D02F46002511E020
:102C100000270FE000228021204601F0B7FB0028AA
:102C200015D1002F17D02168387888627F1C708AF0
:102C3000401E7082708A019B002806980090E9D19E
:102C400000224021204601F0A1FB00280AD02020CC
:102C5000E0670320B3E728882168C005C00D8862BB
:102C6000AD1CE4E72020E0670020A8E77047FEE7FE
:102C700070B5FF240E4D0134002221462846FEF790
:102C80008CFD00F017F80122560231462846FEF767
:102C900084FD00F00FF8002231462846FEF77DFD46
:102CA00000F008F8012221462846FEF776FD70BDA7
:102CB000000400500020401CC0B20A28FBD370471B
:102CC00000B50B4887B0C26A02210A43C262C06ADB
:102CD000039108400590032000020090112001900C
:102CE00069460448FEF776FC00F0A4F807B000BD82
:102CF000001002400004005070B50C4C012211027B
:102D00002046FEF74AFDFFF7D5FF0122550229466E
:102D10002046FEF742FDFFF7CDFF00222946204660
:102D2000FEF73BFDFFF7C6FF70BD0000000400503A
:102D3000F1B500240127154E25467F026006040EDA
:102D4000012239463046FEF728FDFFF7B3FFFF2189
:102D500001313046FEF71CFD002801D0641CE4B2AE
:102D6000002239463046FEF718FDFFF7A3FF6D1C21
:102D7000EDB2082DE2D30098002803D0FFF778FFCA
:102D80002046F8BDFFF7B8FFFAE700000004005046
:102D9000F8B500240127154E05467F02280601D507
:102DA000012200E00022FF2101313046FEF7F5FC50
:102DB000FFF780FF012239463046FEF7EEFCFFF7B1
:102DC00079FF002239463046FEF7E7FC072C04D194
:102DD000012211023046FEF7E0FC6806050EFFF7FF
:102DE00069FF641CE4B2082CD8D3F8BD000400507D
:102DF00070B501220E4D140221462846FEF7CDFC87
:102E00000122560231462846FEF7C7FCFFF752FF63
:102E1000002221462846FEF7C0FCFFF74BFF0022A8
:102E200031462846FEF7B9FCFFF744FF70BD0000AD
:102E30000004005070B5FF24094D013400222146E2
:102E40002846FEF7AAFC012251022846FEF7A5FCFF
:102E5000FFF730FF012221462846FEF79EFC70BD99
:102E60000004005070B50122104D1402214628467E
:102E7000FEF793FCFFF71EFF01225602314628465B
:102E8000FEF78BFCFFF716FF21462846FEF780FC75
:102E9000002801D0012400E0002400223146284609
:102EA000FEF77BFCFFF706FF204670BD00040050D4
:102EB0007CB514460D4606466B4606223B2168202B
:102EC00000F094F800280BD16946098849BA31808E
:102ED0006946498849BA29806946898849BA218062
:102EE0007CBD7CB514460D4606466B460622432142
:102EF000682000F07BF800280BD16946098849BAA0
:102F000031806946498849BA29806946898849BA21
:102F100021807CBD10B500F04FFA04211A2000F08A
:102F2000D6F81C21084600F0D2F88021372000F0A6
:102F3000CEF84021382000F0CAF810BD10B5FFF7D8
:102F4000BFFE80216B2000F0C2F86420FEF71CFB5E
:102F500000216B2000F0BBF8032000F080F8002077
:102F600000F076F8322000F09BF80021382000F0C5
:102F7000AEF800216A2000F0AAF80021232000F01A
:102F8000A6F88021372000F0A2F8752000F011F893
:102F9000682801D0012010BD01216B2000F097F8B6
:102FA00000216C2000F093F8322000F079F8002026
:102FB00010BD10B50446FFF71BFFD020FFF7E8FE59
:102FC000FFF750FF2046FFF7E3FEFFF74BFFFFF749
:102FD0000FFFD120FFF7DCFEFFF744FF0020FFF7D3
:102FE000A7FE0446FFF726FF204610BDF8B51D4694
:102FF00014460F460646FFF7FBFE7600F0B2FFF7D9
:10300000C7FEFFF72FFF002803D0FFF713FF0120B3
:10301000F8BD3846FFF7BCFEFFF724FFFFF7E8FED8
:10302000761CF0B2FFF7B4FEFFF71CFF08E0012C9E
:103030000CD00120FFF77CFE641E2870E4B26D1CEA
:10304000002CF4D1FFF7F6FE0020F8BD0020F1E7D8
:10305000C00610B5010E1C2000F039F810BDC006E6
:1030600010B5010E1B2000F032F810BD10B5BC28C1
:1030700001D3012110E0622801D302210CE02A28AB
:1030800001D3032108E0142801D3042104E00A2815
:1030900001D3052100E006211A2000F018F810BD28
:1030A00010B504467D20C000844201D9044602E0E8
:1030B000042C00D204242146FDF71AF8401EC1B2A8
:1030C000192000F004F86008FFF7D0FF10BD70B5BC
:1030D0000C460546FFF78CFED020FFF759FEFFF7A0
:1030E000C1FE00280BD12846FFF752FEFFF7BAFEBB
:1030F0002046FFF74DFEFFF7B5FE002803D0FFF78F
:1031000099FE012070BDFFF795FE002070BDF8B557
:103110001E4615460F460446FFF76AFE6006000E7F
:10312000FFF736FEFFF79EFE00280DD13846FFF769
:103130002FFEFFF797FE00240CE0305DFFF728FE1E
:10314000FFF790FE002803D0FFF774FE0120F8BDC2
:10315000641CE4B2AC42F0D3FFF76CFE0020F8BD73
:103160001CB5002118480091164A01910260C16304
:1031700012054260816005228263012202610246DB
:10318000C16020321170FF235170C23343628162EB
:10319000117301638161042241634261C161FDF7E2
:1031A00061FF002801D0FDF70DFF08480090401492
:1031B000019069460448FDF707FF002801D0FDF79C
:1031C00001FF1CBD00240140FC0100200001002083
:1031D00008B50C48016B012211430163006B1040DC
:1031E0000022009011460920FEF70CFC0920FEF792
:1031F000FDFB002211460A20FEF704FC0A20FEF720
:10320000F5FB08BD00100240F0B587B014216846F8
:10321000FDF732F82748C26A80210A43C262C26AB7
:103220000A400592C16A01242143C162C16A21405A
:103230000591C16A02252943C162C06AA0212840C4
:1032400005900022C805FEF7A8FAB3273F02002226
:1032500039461948FEF7A1FA112000040190052013
:103260000094694602940007FEF7B4F9A0200026F6
:103270006A46039551C26946C005FEF7ABF9694637
:103280000D480097029603950194FEF7A3F9A00359
:1032900000900196694602960748FEF79BF90022C6
:1032A00002210520FEF7AEFB0520FEF79FFB07B0CD
:1032B000F0BD0000001002400004005010B513489B
:1032C0001149016012494160002181600161416141
:1032D00081610122C161C2600162FEF7B5FA002876
:1032E00001D0FDF76FFE00210848FEF763FA0028C1
:1032F00001D0FDF767FE00210448FEF780FA0028A0
:1033000001D0FDF75FFE10BD00540040A002002078
:10331000380F300010B586B0002400940121164803
:1033200001940294039404948907059401601F2179
:103330008460416011490461C16080214161FFF7EF
:103340002FF8002801D0FDF73DFE0120000300907A
:1033500069460948FFF79CF8002801D0FDF732FEC6
:10336000049404A904480594FEF7EAFF002801D05C
:10337000FDF728FE06B010BDF4020020E7030000B0
:1033800010B50C480A4901604B21C9014160002178
:103390008160C16001618161C1610C220162426191
:1033A0004162FFF705FB002801D0FDF70BFE10BDC1
:1033B000003801403403002010B505211F20FFF71D
:1033C00086FE01212020FFF782FE10BDFEE7704738
:1033D000F8B504223C493D48FDF76EFF3A493C4CA4
:1033E000098800202288401C8A18C0B222800A283E
:1033F000F8D30A2190B2FCF77BFE06466080354880
:103400000027811B344827807043FCF787FE7D210D
:10341000C900451A314805603046FDF7FDF9304ACC
:10342000304BFDF7DDF800222F4BFDF741F9FDF79A
:1034300042FA2E4908602E48854201D9676040E073
:103440002C4829182C48814201D80A2038E02B4901
:103450006918814201D8142032E029496918814253
:1034600001D81E202CE027496918814201D8282064
:1034700026E02548FF2128182C31884201D8322027
:103480001EE0214864302818632801D83C2017E04A
:103490001D48C8302818632801D8462010E01B4872
:1034A0002818632801D850200AE0184864302818EA
:1034B000632801D85A2003E01548854201D86420CA
:1034C00060606068F8BD000098000020FC010020EA
:1034D00000000020FF0F000010270000A0000020C7
:1034E0006666666666660A4000FEAF40A40000207D
:1034F0007017000077ECFFFFE70300005FF0FFFFAD
:1035000047F4FFFF2FF8FFFF5BF9FFFF87FAFFFF8C
:103510001405000070B52C4A2C492D4803F082F99F
:103520002C4A2D492D48FFF7DCFC2D4A2D492E4809
:10353000FFF7BEFC2C480021415E8800C117890CB2
:1035400008188013FDF742F9284C00212060254817
:10355000415E8800C117890C08188013FDF736F901
:1035600060601F480021415E8800C117890C08185F
:103570008013FDF72BF91949A0600020085EFDF7C4
:1035800037F91B4D1B4E2A463346FDF791F8FDF7E0
:1035900092F91149E0600020085EFDF729F92A46FA
:1035A0003346FDF785F8FDF786F90A4920610020CA
:1035B000085EFDF71DF92A463346FDF779F8FDF759
:1035C0007AF9606170BD000088000020840000204E
:1035D000800000209600002094000020920000202F
:1035E000900000208E0000208C00002008000020A9
:1035F0006666666666663040F0B585B000213820A4
:10360000FFF765FDCD4C01202070A06A0122014624
:103610002131D20591427DD82122C94900F02EFFE7
:10362000C74A002011462331135C8500401CC0B2FC
:103630004B510528F8D3002043009B185D799B79F6
:103640002D02EB1885006D18401CC0B26B61062876
:10365000F2D30025BA48AF003E1830461130FCF7CF
:1036600023FE00BA000A317D00020843B4496D1CF4
:1036700023317918EDB2C862042DEBD3B049233160
:103680000D4608797C3D2870087A6870087BA87020
:10369000087CE870888A02B22A82088B00B26882AD
:1036A0000746888B06B2AE82088C00B2E88203908F
:1036B000888C00B228830290088D00B26883019044
:1036C0000120CB6AC00743406B600B6B4340AB608B
:1036D0004B6B4340EB60886B0090E8611046FDF750
:1036E00087F8984A984BFCF77BFF0D22D243FDF7F1
:1036F00057F8FDF7E0F828623846FDF779F8914A67
:10370000914BFCF76DFF0D22D243FDF749F8FDF711
:10371000D2F800E07BE068623046FDF769F8894A3C
:10372000894BFCF75DFF0D22D243FDF739F8FDF719
:10373000C2F8A8620398FDF75BF8824F834E7F4280
:103740003A463346FCF7B4FFFDF7B5F8E862029855
:10375000FDF74EF83A463346FCF7AAFFFDF7ABF803
:1037600028630198FDF744F83A463346FCF7A0FF7A
:10377000FDF7A1F8686376490098FCF7F8FDFDF7BE
:1037800086F83A46734BFCF793FF05460022724BCE
:103790000091FCF71DFF0F460646284600226F4B9E
:1037A0000099FCF71DFF32463B46FCF781FF0022E3
:1037B0006B4BFCF707FFFDF77EF80146A0606948F8
:1037C000FCF712FE0121C905674A411A914205D84A
:1037D0006649FCF7CCFD8521C90508E064498842AB
:1037E00001DCE06806E06349FCF7C1FD6249FCF7D3
:1037F000B6FDE060FDF74BF8604A614BFCF7F0FE68
:103800000022604BFCF754FFFDF755F820614C4D4A
:10381000593D2A78FF2A08D16878FF2805D1A87871
:10382000FF2802D1E878FF2804D00121A06AC90549
:10383000884208D301206070A26AC1058A4200D282
:103840000020E07002E06178002903D0A078002811
:103850005AD065E0394921308862E978A87800902B
:1038600037480191233001686B7847A000F050FF82
:10387000E868FDF70CF807460091A868FDF707F81F
:1038800004460E466868FDF702F80B46009903915E
:103890006946D0C1024646A000F03AFFA86AFCF78C
:1038A000F6FF07460091686AFCF7F1FF04460E46F2
:1038B000286AFCF7ECFF0B46009903916946D0C1DA
:1038C000024648A000F024FF686BFCF7E0FF0746C3
:1038D0000091286BFCF7DBFF04460E46E86AFCF714
:1038E000D6FF009B03930B466946D0C1024649A010
:1038F00000F00EFF11480069FCF7C9FF02460B46B5
:1039000054A000F005FF0BE0E078012813D059A087
:1039100000F0FEFE644800F0FBFEA078401CA070A2
:1039200007480F212330FCF7A7FC21210448FCF7AE
:10393000A3FC05B0F0BD5DA0EAE700003800002060
:10394000550100209A9999999999234066663040CB
:1039500000F07F4566660A4000FEAF400088C34025
:1039600000408F4000007A4414AEC73D0000ED4493
:1039700014AE473E00206E450080DD43FB3A70CE1A
:1039800088D2D23F00406F400A3078253258203A22
:10399000200A253032647468202F20253032643AA2
:1039A000253032643A25303264203B20000000008C
:1039B000416E676C653A2020202020252E3266203B
:1039C00020202020252E32662020202020252E3267
:1039D00066202020202064656772656573203B2087
:1039E00000000000416363653A2020202020252E3E
:1039F00032662020202020252E3266202020202004
:103A0000252E326620202020206D2F735E32203B31
:103A100020000000416E67756C61722056656C6F06
:103A2000636974793A2020202020252E32662020D8
:103A3000202020252E32662020202020252E3266B0
:103A400020202020646567726565732F73203B20FA
:103A500000000000526561645F466F7263655F4EEF
:103A60003A2020202020252E3266202020204E20A3
:103A7000203B00000A0A2F2A2A2A2A2A2A2A2A2A2E
:103A8000204D656D6F7279206973206E6F742046CA
:103A9000756C6C21212121212120202A2A2A2A2A01
:103AA0002A2A2A2A2A2F0A00A88400080A0A2F2A6A
:103AB0002A2A2A2A2A2A2A2A20546865206D656D16
:103AC0006F72792069732046756C6C212121212148
:103AD0002120202A2A2A2A2A2A2A2A2A2A2F0A00A8
:103AE00010B5012000F03EF8002000F031F810BDC4
:103AF00010B5012189030248FDF74AFE10BD000000
:103B000000040050F8B50024064625468020E84011
:103B10000746304000F012F8012000F019F8FFF7D6
:103B2000E7FF012800D13C43002000F011F86D1C94
:103B3000EDB2082DEAD32046F8BD000010B50246CC
:103B40000121C9030148FDF728FE10BD0004005003
:103B500010B50246012149030148FDF71EFE10BDC4
:103B60000004005010B50246012109030148FDF789
:103B700014FE10BD00040050704710B5FDF7ECFEB8
:103B800010BD000010B59CB038216846FCF774FBEE
:103B9000142117A8FCF770FB24210EA8FCF76CFB7E
:103BA0001B4801680322D2029143C21489180160A4
:103BB0000220009001210A90039140040C90000122
:103BC000102100240D900B9404916846FEF740F9F3
:103BD000002801D072B6FEE70F201790032018903E
:103BE00019941A9401211B9417A8FEF707F80028CE
:103BF00001D072B6FEE7092013940E9010940EA81F
:103C0000FDF734FF002801D072B6FEE71CB010BDEE
:103C1000007000407047000010B50248FEF7A7FC96
:103C200010BD0000F4020020F0B502680124A407D2
:103C3000144D154E154FA04205D0A84203D0B042F6
:103C400001D0B84204D11346702293434A681A4304
:103C5000A04205D0A84203D0B04201D0B84204D15E
:103C600003231B029A43CB681A4380239A430B69B0
:103C70001A4302608A68C262096881620121416157
:103C8000F0BD0000000400400008014000140140A5
:103C900030B58468FF252D021B021343AC430B4350
:103CA0002343836030BD826870239A430A4307210F
:103CB0000A438260704730B5036A046A640864008E
:103CC00004628469F025AC43120122430A24A34311
:103CD0000B438261036230BD30B5036A1024A343F5
:103CE00003628469036A0F252D031203AC43224348
:103CF000A024A343090119438261016230BD10B5BC
:103D0000818CC90707D001684A6801235B049A4384
:103D1000836A1A434A60818C890707D501684A681B
:103D200001231B049A43C36A1A434A60818C4907E2
:103D300007D501684A6801239B049A43036B1A4321
:103D40004A60818C090707D501684A680123DB03B3
:103D50009A43436B1A434A60818CC90607D50268AF
:103D6000916801231B039943836B19439160818CF4
:103D7000890607D501688A6801235B039A43C36BF0
:103D80001A438A60818C490612D503685A6801215A
:103D90000905046C8A4322435A60026C8A4207D1A7
:103DA0000268516803235B059943436C19435160D2
:103DB000818C090607D501684A680123DB04806C01
:103DC0009A4302434A6010BDFEB50746002580377E
:103DD00004467D60FDF7E8FC0190206800682646F7
:103DE00000076036002819DA2748009001210022D8
:103DF00049052046019B00F0C9FA00280ED0EFF3D8
:103E00001080012181F3108821680A6880239A4379
:103E10000A6080F310882020E06729E020680068AD
:103E2000400728D518480090012100228905204626
:103E3000019B00F0ABFA00281DD0EFF310800121A8
:103E400081F3108821680A68FF2321339A430A60AE
:103E500080F31088EFF31080012181F3108821682E
:103E60008A68520852008A6080F3108820203860E7
:103E700035760320FEBD2020E06738602566656644
:103E800035760020FEBD0000FFFFFF0110B5806AFF
:103E90000022014640314A834A82FEF732FC10BDBF
:103EA00010B5EFF31081012282F3108802681368C5
:103EB000FF242134A343136081F31088EFF31081B2
:103EC000012282F31088026893685B085B009360AC
:103ED00081F31088016E01290BD1EFF310810122CB
:103EE00082F31088026813681024A343136081F3DF
:103EF0001088202280210A5000210166816610BDB1
:103F000070B501464031034680338C8B1D680268D2
:103F1000222D04D0906908210843906170BD526A37
:103F2000456D22402A80426D921C42654A8B521E8A
:103F30004A834A8B002AF1D1EFF31082012484F3E3
:103F4000108804682568FF262136B543256082F372
:103F50001088EFF31082012484F310880468A568A8
:103F60006D086D00A56082F3108820221A6000237E
:103F700083664366174A046894420ED06268120250
:103F80000BD5EFF31082012585F3108825680126F3
:103F9000B606B543256082F31088026E012A02D06E
:103FA000FEF7C8FD70BD0366EFF31082012383F3B3
:103FB00010880468256810239D43256082F31088CB
:103FC0000268D469E443E40600D41362098BFEF767
:103FD00096FB70BD0048004070B501464031034675
:103FE00080338C8B1D680268222D04D090690821D3
:103FF0000843906170BD526A2240446D2270426D48
:10400000521C42654A8B521E4A834A8B002AF1D1C8
:10401000EFF31082012484F3108804682568FF26DA
:104020002136B543256082F31088EFF31082012416
:1040300084F310880468A5686D086D00A56082F39C
:10404000108820221A60002383664366174A04689A
:1040500094420ED0626812020BD5EFF31082012554
:1040600085F3108825680126B606B543256082F3DE
:104070001088026E012A02D0FEF75CFD70BD036657
:10408000EFF31082012383F310880468256810235E
:104090009D43256082F310880268D469E443E406F6
:1040A00000D41362098BFEF72AFB70BD0048004064
:1040B000F8B50446016880682269E66910436269C0
:1040C000002532431043754B0A68754E3240024357
:1040D0000A6020684168032212039143E268114399
:1040E00041602168A069994201D0226A10438A6820
:1040F0000B263602B24302438A606A4922686A4844
:104100008A420CD1C0688007800F06D001283FD0BA
:1041100002283BD0032827D124E0012725E063496A
:104120008A420AD1C0680C2108402DD004282FD023
:1041300008282BD00C2817D114E05D498A4223D0DF
:104140005C498A4220D09A420ED1C1680320800285
:10415000014019D001208002091A19D0091A15D07E
:10416000814201D1082700E010274F4952484039C9
:1041700086009A4234D1002F0CD0022F0DD0042F8C
:1041800010D0082F7ED128E00027EEE70227ECE7C9
:104190000427EAE7FDF700FE06E00968C90605D432
:1041A000304603E0FDF718FE002872D06268510027
:1041B0005118814266D81103814263D3010E060271
:1041C0005008002330185941FBF7BCFF03210902B6
:1041D0003A4A411A91425AD954E00120C003E5E716
:1041E0000122E369D20393422AD13B0000F0E7FAAF
:1041F0000906090C4A114A4A4A264A00FDF7CCFD35
:1042000009E0FDF7D9FD06E00968C90605D4304686
:1042100003E0FDF7E1FD00283BD0616840004A085B
:104220008018FBF765FF0146254A1039914229D8CD
:10423000511C01400007400F084328E01046ECE7FE
:104240003B0000F0BCFA0906090C1F111F1F1F21BB
:104250001F00FDF7A1FD09E0FDF7AEFD06E00968CE
:10426000C90605D4304603E0FDF7B6FD002810D09E
:1042700061684A081018FBF73BFF02461049103AE4
:104280008A4203D9012504E01046F1E780B2216893
:10429000C8600020A066E0662846F8BD00480040DF
:1042A000F369FFEF00380140401002400044004035
:1042B000004C00400050004000093D00FFFC0F0092
:1042C000EFFF000070B54165014640310A834A8323
:1042D00000238366012284681203FF25944204D1DF
:1042E0000469002C13D1264C0AE07F26002C09D04B
:1042F00001252D07AC420CD10469002C05D03F24C8
:104300008C8307E00469002C01D08E8302E08D834A
:1043100000E08B83014680314B6022230B60EFF37A
:104320001081012383F3108803689C6801252C43C6
:104330009C6081F310888168914202D10169002953
:104340000ED010498166016900290BD0EFF310816E
:10435000012282F3108800680268FF23213309E0FC
:1043600009498166EFF31081012282F31088006809
:10437000026820231A43026081F31088002070BD78
:10438000FF010000D93F0008013F0008FFB50646C5
:1043900081B080360546044660350A9F2EE0781CC1
:1043A0002CD0FDF701FA0499401AB84214D8002F16
:1043B00012D020680168490720D5C169C94309079F
:1043C0000CD4082707622046FFF76AFD77600020BB
:1043D0002876012005B0F0BD0320FBE7C069C0438B
:1043E00000050BD401202168C00208622046FFF7B7
:1043F00057FD2020706000202876EDE72068C16915
:104400000298884305D0002103988142C7D000203C
:10441000E0E70121F8E7000010B50248FEF772F965
:1044200010BD00003403002010B5FFF759FB10BD8C
:1044300070B515460E46044600F063F80020FFF7FD
:1044400091FB0220FFF75EFB2002000EFFF75AFBF4
:104450002004000EFFF756FBE0B2FFF753FB0024E9
:1044600004E0305DFFF74EFB641CA4B2AC42F8D30D
:104470000120FFF777FB00F023F870BD70B504460C
:1044800015460E460020FFF76DFB0320FFF73AFBB1
:104490002002000EFFF736FB2004000EFFF732FB70
:1044A000E0B2FFF72FFB002404E0FF20FFF72AFB18
:1044B0003055641CAC42F8D30120FFF753FB70BDAC
:1044C00010B50020FFF74EFB0520FFF71BFB064C45
:1044D00001E0641E04D0FF20FFF714FBC007F8D1F1
:1044E0000120FFF73FFB10BDA086010010B50020A2
:1044F000FFF738FB0420FFF705FB0120FFF732FB35
:1045000010BD10B50020FFF72DFB0620FFF7FAFACB
:104510000120FFF727FB10BDF8B5FEF7FBFFFEF704
:1045200057FF604908606048007801287ED1FCF799
:104530006FFCFCF7DBFB0127FF0500265B4D002825
:1045400075D15B485B490068884270DC00213820E7
:10455000FEF7BDFD5848594C0670AA2020705848F7
:10456000C17861700179A1704179E1708079207121
:104570005448008801126171A071534800880112EB
:10458000E17120725148008801126172A072504896
:1045900000880112E17220734E4800880112617395
:1045A000A0734D4800880112E17320746869C178D6
:1045B00061748178A1744178E17400782075A869EC
:1045C000C17861758178A1754178E17500782076B0
:1045D000E869C17861768178A1764178E1760078E2
:1045E0002077286AC17861778178A1774178E1776F
:1045F0000178204620300170686A01462131B942B5
:1046000020D8070AC0B22125FF213F0242190131FB
:104610008A4200D90D1A2A4638182849FFF708FFA0
:10462000212D0AD22120401B82B201E038E010E0A7
:10463000F81D6119F930FFF7FBFE1C48416A213172
:10464000416201E0FFF752FF21211C48FBF714FEF5
:1046500024E0A879401CC0B2A87114281ED1AE7104
:104660006878012802D02878002817D11BA000F014
:104670004FF82648FDF7F6FE686AB84204D30021D9
:104680003820FEF724FD01E0FEF744FCFDF750FE64
:1046900001210020FDF7BAF9FDF72AFE0248067055
:1046A000F8BD0000A800002076000020380000209F
:1046B000A40000203333F33F7800002034010020B1
:1046C0002E0000208C0000208E0000209000002092
:1046D000920000209400002096000020456E746532
:1046E00072696E67206C6F7720706F776572206DCE
:1046F0006F646520617320616E676C65206973204B
:10470000737461626C652E0A00000000F4020020E0
:104710000FB410B503A9044B044A029800F0D6F96F
:1047200010BC08BC04B01847C5610008F4000020A4
:104730002021020C01D010211046020A01D010469F
:104740000839020901D01046091F820801D010461D
:10475000891E420801D0881E7047081A7047F8B5B4
:1047600004148BB2264682B25E430D1410463714F1
:104770005843360480190021794116466E43371498
:1047800036048019794126466E438919F8BDF8B57B
:10479000040C8BB2264682B25E430D0C1046370CD9
:1047A0005843360480190021794116466E43370C70
:1047B00036048019794126466E438919F8BD30B414
:1047C0007446641E2578641CAB4200D21D46635DAE
:1047D0005B00E31830BC18474900CA0202431000CE
:1047E00000D004204A0D01D001221043044A490D93
:1047F000914201D102210843012800D105207047D0
:10480000FF0700008307FF22DB0E9A408907090E8D
:104810009940002808DB830809489B001B1818688A
:1048200090430843186070470007000F083883085A
:1048300004489B001B18D86990430843D86170470F
:1048400000E400E000ED00E0F8B504464F1EC800AB
:104850000838211815461E46086849683A46062356
:104860009A4310D02A463346FBF7BAFE3A46D200A6
:10487000083AA3181A687F1E5B68FBF7FFFD062243
:104880003B469343EED1022F23D0042F11D0062FA5
:104890002FD12A463346FBF7A3FEE36AA26AFBF751
:1048A000EDFD2A463346FBF79BFE636A226AFBF75F
:1048B000E5FD2A463346FBF793FEE369A269FBF761
:1048C000DDFD2A463346FBF78BFE63692269FBF761
:1048D000D5FD2A463346FBF783FEE368A268FBF763
:1048E000CDFD2A463346FBF77BFE63682268FBF763
:1048F000C5FDF8BD10B50122FBF752FF10BD10B584
:10490000FBF7BCFD10BD002210B513461046114642
:10491000FBF7CEFE10BD0000034A10B500201107C2
:10492000FBF73EFF10BD000001FDFFFF02E008C8DD
:10493000121F08C1002AFAD170477047002001E019
:1049400001C1121F002AFBD1704700000149086015
:1049500070470000F8000020F0B51FB486B0099839
:10496000089A030D0021024314D05148514A1818E7
:10497000504305141198012810981AD0281A401C89
:1049800000264D4F4D49009601910490002812DAFF
:10499000444211E01198012449A3012801D1109843
:1049A000C1430698119A84600360C26041600BB0F5
:1049B000F0BD4042E4E70446210500203F4A001CC8
:1049C00051410391029012E0E00707D032463B4686
:1049D00001990098FBF704FE0191009032463B4696
:1049E00010461946FBF7FCFD06460F466410002CE6
:1049F000EAD10498039B0028029A0999089806DADC
:104A0000FBF7EEFD019B009AFBF7EAFD05E0FBF7E3
:104A10004FFE019B009AFBF74BFE04460E46002218
:104A2000284BFCF759F803D80020C043014607E0A3
:104A30000022254B20463146FBF720FDFCF72CF8E1
:104A4000102409E0002C0ADB0A220023FBF77AFB82
:104A5000079B30321A55641E02460A43F2D11122D6
:104A6000641C079B121B1C19119B012B03D00123F3
:104A700008430ED10AE0084304D011201090002012
:104A8000119077E71098151A6D1E0BE0109882426E
:104A900002DD00236D1C03E0824201DA00236D1E5B
:104AA000002BEED0069811998260C16030C07EE77D
:104AB00001FCFFFF104D0000000014400000F03F1B
:104AC000300000000000F0430000E03FFFB597B069
:104AD0000646002518E2252877D100242746FD49FF
:104AE000049400E00443761C32780120203A904080
:104AF0000842F7D130782A280ED0022230780146B9
:104B00003039092916D804990A23594330394018F5
:104B10001443761C0490F1E7189802C80491189089
:104B2000002904DA01204003044348420490022093
:104B30000443761C30782E2814D104200443707866
:104B4000761C2A2809D11898761C80C8189009E08C
:104B50000A214F43303FC719761C3078014630395F
:104B60000929F5D930786C2810D006DC4C281AD0E9
:104B700068280ED06A2817D104E0742813D07A2848
:104B800012D110E00120400504430CE00121090589
:104B900001E0032109050C437178814203D1012012
:104BA00000052418761C761C3078119066280BD0EE
:104BB00013DC58287DD009DC00287BD04528F6D0AE
:104BC0004628F4D047281AD1A5E118E0632835D04B
:104BD000642870D0652812D19DE170286CD008DC63
:104BE0006728F1D069287BD06E280DD06F2806D1B8
:104BF000BAE073282ED0752871D0782859D01A9A27
:104C0000199990476D1C7EE16002400F022809D07F
:104C100003280DD00428189801680DD00D60001DE0
:104C2000189070E11898EA1701680D604A60F6E77D
:104C3000189801680D80F2E70D70F0E718986A4641
:104C400001781172001D18900020507202A8009087
:104C5000012005E0189802C8189000200091C04378
:104C600061070DD5002101E00199491C0191B9426C
:104C700012DA8142F8DB009A515C0029F4D10BE092
:104C8000002101E00199491C01918142FADB019A5E
:104C90000099895C0029F5D1019904981A9B471A5B
:104CA00021463846199A00F097FA0199401945189B
:104CB0000BE04FE02CE113E04EE000980099007803
:104CC000491C00911A9A199990470198401E019029
:104CD000401CF2D1214638461A9B199A10E137E060
:104CE0000A200021009001916002410F022907D0A3
:104CF000189A01CA1892C2179446032908D00AE0EC
:104D00001898C01DC108C90005C91891944607E04C
:104D100000B2C2179446042902D140B2C1178C4692
:104D200000226146944506DA0A460021404291413C
:104D30008C462D2102E0210504D52B216A461173F2
:104D4000012103E0E10701D02021F7E7029155E0BE
:104D50000A200AE0102008E0102000900021042022
:104D600004430191082703E00820002101910090ED
:104D70006002410F022907D0189A01CA1892002236
:104D80009446032908D008E01898C01DC108C9003E
:104D900005C91891944603E080B2042900D1C0B23D
:104DA00000210291210729D51199702906D0009A76
:104DB0001021019B4A401A4305D00EE040216A466B
:104DC0001173012108E06146014306D030216A4693
:104DD00011731199517302210291009A0821019BCC
:104DE0004A401A430AD16146014301D1610705D502
:104DF00030216A46117301217F1E029111995829B1
:104E000004D035A10E910DA90D910DE037A1F9E760
:104E10006146019B009AFBF795F90E9B8C469B5CC3
:104E20000D9A521E0D92137061460143F0D10D98F8
:104E300005A9081A20300190600703D5012000045D
:104E4000844300E001270198874201DD381A00E021
:104E50000020019900904118029809180498401AFE
:104E60000490E00306D421461A9B199A049800F096
:104E7000B3F94519002706E003A81A9AC05D1999ED
:104E800090476D1C7F1C02988742F5DBE0030CD530
:104E900021461A9B199A049800F09EF9451904E0DE
:104EA0001A9A3020199990476D1C0099481E00905D
:104EB0000029F5DC08E00D980D990078491C0D914A
:104EC0001A9A199990476D1C0199481E0190002962
:104ED000F1DC63E1092801003031323334353637F3
:104EE0003839616263646566000000003031323336
:104EF00034353637383941424344454600000000D6
:104F000000F05AF94519761C3078002800D0E2E507
:104F100028461BB0F0BD600700D406271898C01DB6
:104F2000C108C90048680A680831C30FDB07189137
:104F3000190001D09CA108E0210501D59BA104E046
:104F4000E10701D09AA100E09AA1430011985B0803
:104F5000109165280CD006DC452809D046281DD0C4
:104F6000472841D141E0662818D067283CD13CE071
:104F70000021112F01DB112000E0781C019100902D
:104F800008A911A8FFF7E8FC139905910021119ACF
:104F900015927F1C12980197009150E00120C007E4
:104FA00003900120019008A9009711A8FFF7D4FCF5
:104FB000139A149905920022119B0092129815934E
:104FC000059A0192002901D0104602E0791C401890
:104FD0000190381A01D5019804E04042401E00902B
:104FE000781C0190C01B029043E0012F00DA0127DA
:104FF0000021112F01DD112000E0384601910090C1
:1050000008A911A8FFF7A8FC13990591119A00218E
:10501000129815920091019721070CD40599B94275
:1050200001DB019900E00191012904DD159A491E77
:10503000515C302906D0B84201DA011D05DA0121A0
:10504000029115E00199491EEDE7002805DC009961
:10505000411800910199091A03E0019A411C9142FB
:1050600000DD01910099401A401C02900120C00708
:105070000390200706D402990198814202DB0020A8
:10508000C043029000206946C87707AF012103980A
:105090000337C907884224D0022011902B20129098
:1050A000039800280CDA404203902D20129007E06C
:1050B0000A210398FBF71CF830317F1E03903970EA
:1050C0001199481E11900029F2DC03980028EFD1B5
:1050D000791E129808703078202108404530BF1E94
:1050E000387006A8C01BC01D0390109800780028D7
:1050F00000D00120019941180298C017091803989F
:1051000009180498401A401E0490E00306D4214672
:105110001A9B199A049800F05FF8451910980078C6
:10512000002803D01A9A199990476D1CE00324D5E2
:1051300021461A9B199A049800F04EF845191CE074
:105140000098002807DB00990598884203DD159830
:10515000405C199901E0199930201A9A90470098FB
:105160006D1C401C00900298401E0290002804D143
:105170001A9A2E20199990476D1C0199481E01908A
:105180000029DDDC05E038781A9A7F1C19999047D0
:105190006D1C0399481E03900029F4DC21461A9BDC
:1051A000199A0498ACE600002D0000002B000000C6
:1051B0002000000000000000F8B5044600251E464F
:1051C0001746880404D405E039462020B0476D1CFA
:1051D000641EF9D52846F8BDFFB50446002581B008
:1051E0001E46C80301D5302700E02027880404D5D7
:1051F00005E038460399B0476D1C641EF9D5284672
:1052000005B0F0BDF3B583B00F460024684600F04A
:10521000E9FF0025AE000398B9598059401A00D51E
:105220004042FBF7D3FA0F21C943FBF71BF969464C
:1052300089594A00120E0BD0FBF7D6F87F21C90519
:10524000FBF78DF8400009494008884205DC07E07B
:10525000074940180749884202D30120A840044367
:105260006D1C032DD6DB204605B0F0BD295C0F3E3A
:10527000666666C19A99D900F0B504464F008E481B
:105280008FB07F080D460D91874228DB40423818C9
:1052900020430CD08948874203DC874218D1002C78
:1052A00016D020462946FFF725FB0FB0F0BD844AF3
:1052B000844B20462946FBF793F907460E46824A5F
:1052C000824B20462946FBF78BF93A46334649E0A4
:1052D0000120FFF73BFBFFF716FB0FB0F0BD7C484A
:1052E000874243DAF920800587420BDA20462946B7
:1052F000FFF772FA042801D1FFF70EFB204629467A
:105300000FB0F0BD22462B4610462946FBF768F940
:10531000064602466F480F460B4606217844FFF7C3
:1053200093FA32463B46FBF75BF906906A480791D1
:1053300032463B4604217844FFF786FA32463B4624
:10534000FBF74EF900225C4BFBF798F802460B4640
:1053500007990698FBF7ACF922462B46FBF740F974
:1053600022462B46FBF78AF80FB0F0BD2046524C80
:105370006900490800222346FBF72AF90022D2439C
:10538000FBF70EFA0546024654480E460B46062128
:105390007844FFF759FA2A463346FBF721F906907D
:1053A0004F4807912A46334604217844FFF74CFAC8
:1053B0002A463346FBF714F900222346FBF75EF832
:1053C000059104902846314602F09CF90890454822
:1053D0000C46874219DB059B049A07990698FBF750
:1053E00067F902460B4621460898FBF7F9F8234671
:1053F000089AFBF743F80122FBF7D2F9304A314B08
:10540000FBF7E0F8304A314B4AE000273A460B46BA
:105410000898FBF733F83A4623460A910E90104657
:105420001946FBF7DDF82A463346FBF7D1F80A9B0D
:105430000E9AFBF73DF905460E46059B049A07991F
:105440000698FBF735F90091049001222846314671
:10545000FBF7A6F91A4A1B4BFBF7BAF80E460546AE
:10546000012221460898FBF79BF9009B049AFBF761
:10547000B7F82A463346FBF7A5F805460E46012243
:1054800038462146FBF78CF90F4C174F22463B4616
:10549000FBF79EF82A463346FBF79AF822463B462E
:1054A000FBF796F80D9A002A00DD5DE70122D2078E
:1054B00051400FB0F0BD00000000F03F0000F07F51
:1054C000075C143326A6913C182D4454FB21F93F68
:1054D0000000E03F98300000AE30000024300000B3
:1054E0003A3000003333EF3FFB21E93FF0B589B09C
:1054F00004460D464800069172494008884215DB73
:105500007149884203DC884207D1002C05D020462F
:105510002946FFF7EFF909B0F0BD6C48002D02DD18
:105520006B4909B0F0BD6B4909B0F0BD6A498842CA
:1055300011DA6A4988420BDA20462946FFF74CF90E
:10554000042801D1FFF7E8F92046294609B0F0BD4B
:105550000026F6435DE06D0061496D08884232DA4D
:105560006049884219DA0026012332469B0720460B
:105570002946FAF783FF0746019101222046294672
:10558000FBF70EF90022584BFBF71CF83A46019B3B
:10559000FBF78EF804460D463BE001260022524BF5
:1055A00020462946FAF76AFF0746009100224E4B33
:1055B00020462946FBF706F83A46009BFBF778F8A9
:1055C00004460D4625E04949884219DA02260022A0
:1055D000474B20462946FBF703F80022424BFAF7D7
:1055E0004DFF074602910022414B20462946FAF71B
:1055F000E9FF3A46029BFBF75BF804460D4608E0DC
:10560000032622462B4600203A49FBF751F8044670
:105610000D4622462B4610461946FAF7E1FF07468B
:105620000B4602460191FAF7DBFF02460290324830
:105630000B46039106217844FFF706F93A46019B91
:10564000FAF7CEFF00902D48019105217844039B85
:10565000029AFFF7F9F8039B029AFAF7C1FF024694
:105660000B4601990098002E0BDAFAF707FF224645
:105670002B46FAF7B5FF22462B46FAF7A9FF09B0E9
:10568000F0BDFAF7FBFE22462B46FAF7A9FF1C4AAB
:10569000F6007A4493191A685B68FAF793FF22467A
:1056A0002B46FAF78FFF174A7A4493191A685B68FA
:1056B000FAF78EFF069A002AE1DA0122D20751405A
:1056C00009B0F0BD000010440000F07F182D4454D4
:1056D000FB21F93FFB21F9BF0000DC3F0000203E29
:1056E0000000F33F0000E63F0000F03F0080034071
:1056F0000000F83F0000F0BF362E0000F82D00003B
:10570000922D00005C2D0000F0B51FB4039B5442A5
:105710005D00164626439C46F40F6D084B004E4E26
:105720005B082C438E46B44205D847420743FC0F22
:105730001C43B44204D96346FFF7E1F805B0F0BD5D
:10574000464E6644164309D0CC0F6646B61702276C
:105750003E40264304461C4304D00BE0FFF7C6FE40
:1057600005B0F0BD002EFBD0012EF9D0022E32D0B4
:10577000032E34D014462C430BD0374CA54216D1FF
:10578000A3420AD1012189078D438B431946039512
:105790000DE0704600280FDB25E0314F7F44002EDE
:1057A0000ED0012E10D0022E15D0032E17D0A342FA
:1057B0001DD17046002816DA2A482B4905B0F0BDE5
:1057C0007968386805B0F0BD01227968D207386879
:1057D000514005B0F0BD2348244905B0F0BD214833
:1057E000234905B0F0BD1F48224905B0F0BD5B1B41
:1057F0001B153C2B02DD1B481E490FE06446002CA4
:1058000005DA3C24E34202DA0020014606E0039B6D
:10581000FAF74EFF49004908FFF768FE002EE4D072
:10582000012E0BD0144A154B022E0CD0FAF7CAFEEB
:105830000C4A0E4BFAF7C6FE05B0F0BD0122D207A6
:10584000514005B0F0BDFAF7BDFE064A074BFAF726
:10585000BFFE05B0F0BD00000000F07F000010C0EA
:10586000002D0000182D4454FB21F9BFFB210940F5
:10587000FB2109C0FB21F93F075C143326A6A13C9C
:1058800071B5E12292007D260F4C3602009817E098
:10589000904201D9134600E00346A0695901451A18
:1058A00005D4A169814208DAA942FADA05E0AD1906
:1058B000A1698142FCDDA942FADC0098C01A00907F
:1058C0000028E5D178BD000000E000E008B5002820
:1058D00009D0202168460170282141703021817053
:1058E0003821C17004E0A32204216846FAF7BDFC08
:1058F0006A460421024801F06BFE01F00FFB08BD6F
:105900009E0A0000FEB50446022069460870CA20BF
:105910004870E32088700920C8706A460421682016
:1059200001F056FEA32069460870610607D5C02223
:1059300069464A70C8228A70C222CA7003E069466A
:1059400048708870C870E605B10F07D0C422694658
:105950000A71CC224A71C6228A7103E06946087135
:1059600048718871C871087248720A460A214D4808
:1059700001F02EFEA007D825002803D0202069467C
:10598000087001E06846057046486A4601210F30FC
:1059900001F01EFEA00601D5012000E0002000F06D
:1059A0008BF8B00F19D0E00508D5B2216846017018
:1059B0008B214170B62181709B2107E0B0216846A0
:1059C000017080214170B42181709021C170024624
:1059D00034480421401F01F0FBFD3348E10721D08A
:1059E000F8216A461170012101F0F2FDFA21072029
:1059F00000F032FB072000F001FB012000F019FB52
:105A0000642000F0C1FBFF20F53000F0CCFBC82182
:105A1000264800F0BFFA282000F0D2FA0A2000F051
:105A2000DEFA05E069460D706A46012101F0D0FDFD
:105A3000A00703D5D9206946087001E068460570C3
:105A40006A4601211A4801F0C3FD600701D5012013
:105A500000E0002000F050F8E00601D5012000E051
:105A60000020FFF733FF0820124D2043688101F02A
:105A700055FA0020A873600601D50620A873B00F60
:105A800002D0A87B801DA8731420044202D0A87BFA
:105A90001030A873A00702D0A87B001DA8730020B7
:105AA000FEBD0000A70A0000B008000009E3CA021A
:105AB0003D070000040400200EB59723DB000028FA
:105AC00002D007A107C901E008A207CA029201910A
:105AD00000906A460921184601F07AFD0EBD0000CB
